:100000008A110A12052800000900C301FF30831677
:1000100085000810831208108811881008118316B3
:10002000881188100811860183126430A000A10194
:10003000402133308C2233308C2233308C223830C4
:100040008C220D308C2201308C2283169F17831254
:10005000A0016F2283161E088312D5001E08D60049
:1000600083169F1701308312A0006F2283161E088B
:100070008312DF001E08E00080308C224C307F228B
:100080006F307F226E307F2267307F2248307F22A0
:100090003A307F225508CA005608CB0077259622B1
:1000A0006D307F2273307F225F08AC006008AD00A6
:1000B000AE01AF015508A4005608A500A601A7018E
:1000C000D4212008D7002108D8002208D90023080D
:1000D000DA005708A0005808A1005908A2005A08E1
:1000E000A300A4010430A500A601A70101222C0849
:1000F000D7002D08D8002E08D9002F08DA0055089F
:10010000A0005608A100A201A3015708A4005808A6
:10011000A5005908A6005A08A700C2212008D70048
:100120002108D8002208D9002308DA00C0308C2228
:100130004C307F226F307F226E307F2267307F22EB
:100140004C307F223A307F225708CF005808D00029
:100150005908D1005A08D200A42596226D307F227A
:1001600073307F225508A0005608A100A201A30108
:100170009421031D02295708A0005808A10059081E
:10018000A2005A08A300A401A501A601A7016022AC
:10019000031802295708B6005808B7005908B800D4
:1001A0005A08B900D0223708BC003808BD00390809
:1001B000BE003A08BF005508B7005608B800B9019C
:1001C0009F2210243708DB003808DC003908DD00E6
:1001D0003A08DE005B08BC005C08BD005D08BE009C
:1001E0005E08BF00B701B8017A30B9008830BA00A4
:1001F000ED243708DB003808DC003908DD003A0858
:10020000DE000629DB01DC01DD01DE0190308C22FD
:1002100066307F2272307F2265307F2271307F22EC
:100220003A307F225B08CF005C08D0005D08D10027
:100230005E08D2000726962248307F227A307F223D
:100240005508A0005608A100A201A3019021031D9A
:1002500030296430A000A101402101308C222528E2
:1002600008145508A0005608A1004021081057089E
:10027000A0005808A100402101308C2225283F29E8
:10028000A00803194B295221A00300000000000020
:10029000000000004029A108031908005221A10311
:1002A000A00340290C30A500A50B54290000000034
:1002B0001230A200A20B612963216321000000001B
:1002C000080063215A290D30A400A40B6529000001
:1002D0000800A80B692908000130A8020001031CCE
:1002E000013EA902031C08006C291030A600A501DC
:1002F000A401210DA40DA50D2208A4022308031CAE
:10030000230FA50203188B292208A407230803182A
:10031000230FA5070310A00DA10DA60B7929080036
:1003200005309B2902309B2906309B2903309B29ED
:1003300004309B290130A80023082102031DA229B3
:100340002208200204300318013003190230280566
:10035000031DFF3008002408A0070318BA21250850
:10036000A1070318BD212608A2070318C0212708EA
:10037000A3070800A10A031D0800A20A031D080024
:10038000A30A0800C521AB210800A409A509A609F4
:10039000A709A40A031D0800A50A031D0800A60A50
:1003A000031D0800A70A0800A001A101A201A301E2
:1003B00083132C3084000430AA00DF29FB210018AD
:1003C000AB21FB218018AB21FB210019AB21FB21C4
:1003D0008019AB21FB21001AAB21FB21801AAB2134
:1003E000FB21001BAB21FB21801BAB21840AAA034C
:1003F000031DDE2908000310A40DA50DA60DA70DF1
:100400000800AC01AD01AE01AF018313A71F092A9B
:100410000800C521A71B0D2A0800AB01271F132ABE
:10042000AB0AFB210E2A2308B3002208B2002108E0
:10043000B1002008B000AB21A31F272A3308A30076
:100440003208A2003108A1003008A000482A2B0879
:10045000073C031C2D2A2C303A2A2B080F3C031C86
:10046000332A2D303A2A2B08173C031C392A2E3008
:100470003A2A2F3084002B080739AA000130A9003E
:100480000319462A0310A90DAA0B422A2908800441
:100490000314A70CA60CA50CA40CAB03AB1F132ACA
:1004A000080027082302031D5F2A26082202031DD5
:1004B0005F2A25082102031D5F2A24082002080064
:1004C00023082702031D6E2A22082602031D6E2A16
:1004D00021082502031D6E2A200824020800A00D11
:1004E000A00D3C30A005C13020049F000530A800BD
:1004F00069219F149F187A2A0C131F100800881472
:100500000811860087221F30A8006921080088157D
:10051000000088110000080088100811860087225A
:10052000F230A8000130A9006C2108008313443088
:100530008400000803190800840A7F22992A963053
:10054000BA00C201B91FAD2AB709B809B909B70A7B
:100550000319B80A0319B90AC217C1013908031DE2
:10056000C22A3808B9003708B800B701C1153908E0
:10057000031DC22A3808B900B801C1114116390853
:100580000319352B4108BA02031D031C102B03105D
:10059000B91B322BB70DB80DB90DBA0BC82A102BE9
:1005A0009E30BA00C201B91FE12AB609B709B809DD
:1005B000B909B60A0319B70A0319B80A0319B90A1F
:1005C000C217C1013908031D012B3808B9003708CB
:1005D000B8003608B700B601C1153908031D012B54
:1005E0003808B9003708B800B701C11141163908F9
:1005F000031D012B3808B900B801C11539080319CA
:10060000352B4108BA02031D031C102B0310B91B24
:100610003B2BB60DB70DB80DB90DBA0B072B102B30
:100620004315C31FFF340130BA00B901B801B70147
:10063000C20DB90CFF34C314C31FFF34FF30BA001E
:10064000B900B800B700C20DB90CFF344314C31F82
:10065000FF34B901C21FFF30B900B800B700C20DA6
:10066000B90CFF34C21FB9130034B901B801B70186
:10067000B601BA010034431B371C322BB61F322B94
:10068000B70A0319B80A0319B90A031D322BB90CAA
:10069000B80CB70CBA0A03191B2B322B3A080319F2
:1006A00000343908C200B9179630BA02BA1F262B97
:1006B000BA09BA0A08303A02031C792BBA00B70DFE
:1006C0003808B7003908B800B90108303A02031CED
:1006D000792BBA00B70D3808B700B80108303A02D4
:1006E000031C792BBA00B70DB7013A08031D03109C
:1006F000822B3A080319822B0310B90CB80CB70CE3
:10070000BA0B7C2B431B371C8E2B031C8E2BB70A7A
:100710000319B80A0319B90AB91B262BC21F0034E2
:10072000B909B809B709B70A0319B80A0319B90A08
:100730000034B901B801B7010034B6013A08031911
:1007400000343908C200B9179E30BA02BA1F012C12
:10075000BA09BA0A08303A02031CD62BBA00B60D01
:100760003708B6003808B7003908B800B9010830B2
:100770003A02031CD62BBA00B60D3708B60038086B
:10078000B700B80108303A02031CD62BBA00B60DE8
:100790003708B600B70108303A02031CD62BBA005E
:1007A000B60DB6013A08031D0310E02B3A080319F1
:1007B000E02B0310B90CB80CB70CB60CBA0BD92B44
:1007C000431B361CEE2B031CEE2BB60A0319B70A8B
:1007D0000319B80A0319B90AB91B262BC21F003422
:1007E000B909B809B709B609B60A0319B70A03194E
:1007F000B80A0319B90A0034B901B801B701B60142
:1008000000344314C31FFF34B901C21FFF30B900C5
:10081000B800B700B600C20DB90CFF348030BE0678
:1008200039083E06C100B601BB013A083F02031C6D
:10083000312C3F08B4003A08BF003408BA003E0823
:10084000B4003908BE003408B9003D08B4003808C7
:10085000BD003408B8003C08B4003708BC003408B8
:10086000B7003F08031900343908C200B917BE1792
:100870003F083A02BF000319642C08303F02031CF2
:100880005A2CBF003C08BB003D08BC003E08BD0020
:10089000BE0108303F02031C5A2CBF003C08BB00BD
:1008A0003D08BC00BD0108303F02031C5A2C420821
:1008B000B90000343F080319642C0310BE0CBD0CB2
:1008C000BC0CBB0CBF0B5D2CC11F712CBB09BC0940
:1008D000BD09BE09BB0A0319BC0A0319BD0A0319E5
:1008E000BE0A3B08B6073C0803183C0FB7073D0893
:1008F00003183D0FB8073E0803183E0FB907C11B88
:100900008A2C031C3B2BB90CB80CB70CB60CBA0FD5
:100910003B2B1B2B0318E12AB609B709B809B90903
:10092000B60A0319B70A0319B80A0319B90A8030BD
:10093000C206AD2A3A08031D3F080319352B3908B2
:100940003E06C2003F08BA077E30031CAB2CBA0239
:1009500003181B2BAE2CBA02031C102B3908B6004F
:100960003808B5003708B400B617BE170310B90130
:10097000B801B7011830C100341CC82C3C08B707B7
:100980003D0803183D0FB8073E0803183E0FB9078E
:10099000B90CB80CB70CB60CB50CB40C0310C10BE9
:1009A000BC2CB91BD82CB60DB70DB80DB90DBA03B8
:1009B000431B371CEA2CB61FEA2CB70A0319B80AE6
:1009C0000319B90A031DEA2CB90CB80CB70CBA0A02
:1009D00003191B2BC21FB91300343F080319752DCF
:1009E0003A080319352B39083E06C200B917BE175D
:1009F000C1013908B6003808B5003708B4003C0812
:100A0000B4023D08031C3D0FB5023E08031C3E0F17
:100A1000B602B601B501B401031C152D0310B90CC3
:100A2000B80CB70CB60C0130C1003F08BA02031C69
:100A30001F2D7E304107BA0703181B2B242D7E3053
:100A40004107BA07031C102B1830C000B40DB50DB8
:100A5000B60DB70DB80DB90DC10D3C08B7023D0874
:100A6000031C3D0FB8023E08031C3E0FB9023E0DA9
:100A7000C104411C3D2D3414482D3C08B7073D08E6
:100A800003183D0FB8073E0803183E0AB907341093
:100A9000C00B262D431B341C6C2D0310B70DB80D55
:100AA000B90DC10D3C08B7023D08031C3D0FB8024B
:100AB0003E08031C3E0FB9023E0D41040139B40744
:100AC0000318B50A0319B60A031D6C2DB60CB50C34
:100AD000B40CBA0A03191B2BC21FB6133608B9008F
:100AE0003508B8003408B7000034C315FF34831349
:100AF000443084004C104A08A4004B08A500103074
:100B0000A2002730A3009525E830A2000330A300FF
:100B100095256430A200A30195250A30A200A30107
:100B200095252408A025800108002408A000250898
:100B3000A1007521200803199E2D4C144C1CA32DD7
:100B4000303E8000840A08004430D40053104F081F
:100B5000A0005008A1005108A2005208A300A4015F
:100B6000CA30A5009A30A6003B30A700F625A401A4
:100B7000E130A500F530A6000530A700F62580304D
:100B8000A4009630A5009830A600A701F6254030B5
:100B9000A4004230A5000F30A600A701F625A03022
:100BA000A4008630A5000130A600A701F62510306C
:100BB000A4002730A500A601A701F625E830A4006F
:100BC0000330A500A601A701F6256430A400A50105
:100BD000A601A701F6250A30A400A501A601A701D8
:100BE000F6252008AC00FD258001080001222C0814
:100BF0000319FB2D5314531C062E83135408840031
:100C00002C08303E8000840A0408D40008004430D8
:100C1000D4005310D11F102ED113FD30AC00A826E4
:100C20004F08B7005008B8005108B9005208BA0080
:100C30009D233608A0003708A1003808A200390813
:100C4000A3002008B6002108B7002208B800230836
:100C5000B900D0223708BC003808BD003908BE00F2
:100C60003A08BF004F08B7005008B8005108B90053
:100C70005208BA000E243708CF003808D0003908CF
:100C8000D1003A08D200BC01BD017A30BE008830E4
:100C9000BF004F08B7005008B8005108B90052080B
:100CA000BA009A243708CF003808D0003908D1009C
:100CB0003A08D2007226FE30AC00A82653144F0822
:100CC000B7005008B8005108B9005208BA009D2377
:100CD0003608A0003708A1003808A2003908A30090
:100CE000902608004030A4004230A5000F30A60036
:100CF000A701A126A030A4008630A5000130A600DF
:100D0000A701A1261030A4002730A500A601A70145
:100D1000A126E830A4000330A500A601A701A12662
:100D20006430A400A501A601A701A1260A30A400F1
:100D3000A501A601A701A1262008AC00A8268001D4
:100D4000080001222C080319A62E5314531CB12E9F
:100D50008313540884002C08303E8000840A040861
:040D6000D4000800B3
:04400E00C423FF3E8A
:00000001FF
