:100000008A150A1237290000FF00030E8301FE0043
:100010000A08FD008A150A12C9217D088A007E0E91
:100020008300FF0E7F0E09008A01200882073F34FB
:1000300006345B344F3466346D347D3407347F349A
:100040006F348A01200882073F3406345B344F3412
:1000500066346D347D3407347F346F348A01200870
:1000600082073F3406345B344F3466346D347D345C
:1000700007347F346F348A01200882073F34063406
:100080005B344F3466346D347D3407347F346F34E1
:100090008A01200882073F3406345B344F346634CB
:1000A0006D347D3407347F346F348A012008820731
:1000B0003F3406345B344F3466346D347D3407345A
:1000C0007F346F348A01200882073F3406345B3462
:1000D0004F3466346D347D3407347F346F348A0195
:1000E000200882073F3406345B344F3466346D3465
:1000F0007D3407347F346F348A01200882073F340F
:1001000006345B344F3466346D347D3407347F34C9
:100110006F348A01200882073F3406345B344F3441
:1001200066346D347D3407347F346F348A0120089F
:1001300082073F3406345B344F3466346D347D348B
:1001400007347F346F348A01200882073F34063435
:100150005B344F3466346D347D3407347F346F3410
:10016000A0080319BB28C220A00300000000000063
:1001700000000000B028A10803190800C220A10354
:10018000A003B0280C30A500A50BC4280000000077
:100190001230A200A20BD128D320D32000000000EF
:1001A0000800D320CA280D30A400A40BD5280000D5
:1001B00008001030A600A501A401210DA40DA50D75
:1001C0002208A4022308031C230FA5020318EF280A
:1001D0002208A40723080318230FA5070310A00D66
:1001E000A10DA60BDD2808000310A10CA00CFF3EFA
:1001F0000318F42808002408A00703180A2125087A
:10020000A10703180D212608A207031810212708AB
:10021000A3070800A10A031D0800A20A031D080085
:10022000A30A08001521FB200800A409A509A609B6
:10023000A709A40A031D0800A50A031D0800A60AB1
:10024000031D0800A70A0800A001A101A201A30143
:1002500083132C3084000430AA002F294B2100186E
:10026000FB204B218018FB204B210019FB204B2148
:100270008019FB204B21001AFB204B21801AFB2008
:100280004B21001BFB204B21801BFB20840AAA036F
:10029000031D2E2908000310A40DA50DA60DA70D02
:1002A0000800AC01AD01AE01AF018313A71F5929AE
:1002B00008001521A71B5D290800AB01271F632932
:1002C000AB0A4B215E292308B3002208B2002108A3
:1002D000B1002008B000FB20A31F77293308A3003A
:1002E0003208A2003108A1003008A00098292B088C
:1002F000073C031C7D292C308A292B080F3C031C4A
:1003000083292D308A292B08173C031C89292E307C
:100310008A292F3084002B080739AA000130A90050
:10032000031996290310A90DAA0B92292908800404
:100330000314A70CA60CA50CA40CAB03AB1F6329DC
:1003400008009630BC00C6018A110A12BB1FB129F1
:10035000B909BA09BB09B90A0319BA0A0319BB0AD0
:10036000C617C5013B088A110A12031DCC293A0899
:10037000BB003908BA00B901C5153B088A110A1239
:10038000031DCC293A08BB00BA01C51145163B082C
:100390008A110A120319592A4508BC028A110A1245
:1003A000031D031C342A03108A110A12BB1B562A90
:1003B000B90DBA0DBB0D8A110A12BC0BD4298A11D2
:1003C0000A12342A9E30BC00C6018A110A12BB1FD1
:1003D000F529B809B909BA09BB09B80A0319B90A54
:1003E0000319BA0A0319BB0AC617C5013B088A11CB
:1003F0000A12031D1D2A3A08BB003908BA00380842
:10040000B900B801C5153B088A110A12031D1D2A3F
:100410003A08BB003908BA00B901C51145163B08B6
:100420008A110A12031D1D2A3A08BB00BA01C5151C
:100430003B088A110A120319592A4508BC028A117D
:100440000A12031D031C342A03108A110A12BB1B53
:100450005F2AB80DB90DBA0DBB0D8A110A12BC0B7B
:10046000252A8A110A12342A4715C71FFF34013082
:10047000BC00BB01BA01B901C60DBB0CFF34C714E7
:10048000C71FFF34FF30BC00BB00BA00B900C60D67
:10049000BB0CFF344714C71FFF34BB01C61FFF301E
:1004A000BB00BA00B900C60DBB0CFF34C61FBB139E
:1004B0000034BB01BA01B901B801BC0100348A1192
:1004C0000A12471B391C562A8A110A12B81F562ACB
:1004D000B90A0319BA0A0319BB0A8A110A12031DC1
:1004E000562ABB0CBA0CB90CBC0A8A110A120319A1
:1004F0003F2A8A110A12562A3C08031900343B0885
:10050000C600BB179630BC028A110A12BC1F4A2AC9
:10051000BC09BC0A08303C028A110A12031CB12A29
:10052000BC00B90D3A08B9003B08BA00BB0108305D
:100530003C028A110A12031CB12ABC00B90D3A0808
:10054000B900BA0108303C028A110A12031CB12A10
:10055000BC00B90DB9013C08031D03108A110A1231
:10056000BE2A3C088A110A120319BE2A0310BB0CCA
:10057000BA0CB90C8A110A12BC0BB62A8A110A12DB
:10058000471B391CD02A8A110A12031CD02AB90A27
:100590000319BA0A0319BB0A8A110A12BB1B4A2A99
:1005A000C61F0034BB09BA09B909B90A0319BA0A46
:1005B0000319BB0A0034BB01BA01B9010034B80108
:1005C0003C08031900343B08C600BB179E30BC0230
:1005D0008A110A12BC1F592BBC09BC0A08303C0204
:1005E0008A110A12031C242BBC00B80D3908B8006C
:1005F0003A08B9003B08BA00BB0108303C028A1136
:100600000A12031C242BBC00B80D3908B8003A08A4
:10061000B900BA0108303C028A110A12031C242BCB
:10062000BC00B80D3908B800B90108303C028A1185
:100630000A12031C242BBC00B80DB8013C08031D92
:1006400003108A110A12322B3C088A110A1203196C
:10065000322B0310BB0CBA0CB90CB80C8A110A125D
:10066000BC0B292B8A110A12471B381C462B8A11F6
:100670000A12031C462BB80A0319B90A0319BA0A4D
:100680000319BB0A8A110A12BB1B4A2AC61F00346F
:10069000BB09BA09B909B809B80A0319B90A031993
:1006A000BA0A0319BB0A0034BB01BA01B901B80187
:1006B00000344714C71FFF34BB01C61FFF30BB0007
:1006C000BA00B900B800C60DBB0CFF34B81F003427
:1006D00003147F3038050319390C3B08C600BB17DB
:1006E00003110318B90A0319BA0A0319BB0A8A11BC
:1006F0000A12031D832BBB0CBA0CB90CBC0A8A115D
:100700000A1203193F2AC61FBB130034B701B601F2
:10071000B5013B08C5003A08C4003908C3003808D1
:10072000C2000830C800BE0C8A110A120318B52B8B
:100730008A110A12C80B932BC800BF0C8A110A1227
:100740000318B92B8A110A12C80B9D2BC800C00CC4
:100750008A110A120318BD2B8A110A12C80BA72B83
:10076000BB01BA01B901B801003403108A110A12A1
:10077000D42B03108A110A12F22B03108A110A12C9
:10078000112CBE0C8A110A12031CD42B4208B80784
:1007900043080318430FB90744080318440FBA0766
:1007A00045080318450FBB07BB0CBA0CB90CB80CB5
:1007B000B70C8A110A12C80BC12B0830C800BF0C35
:1007C0008A110A12031CF22B4208B80743080318C7
:1007D000430FB90744080318440FBA074508031824
:1007E000450FBB07BB0CBA0CB90CB80CB70CB60C58
:1007F0008A110A12C80BDF2B0830C800C00C8A11FE
:100800000A12031C112C4208B80743080318430FAF
:10081000B90744080318440FBA0745080318450FE1
:10082000BB07BB0CBA0CB90CB80CB70CB60CB50CAA
:100830008A110A12C80BFE2B0034B801B7013B081D
:10084000C5003A08C4003908C3000830C800BF0C0E
:100850008A110A120318422C8A110A12C80B272C7B
:10086000C800C00C8A110A1203183E2C8A110A1201
:10087000C80B312CBB01BA01B901003403108A1135
:100880000A126E2C03108A110A12552CBF0C8A1101
:100890000A12031C552C4308B90744080318440FD7
:1008A000BA0745080318450FBB07BB0CBA0CB90CB7
:1008B000B80C8A110A12C80B462C0830C800C00CAC
:1008C0008A110A12031C6E2C4308B9074408031846
:1008D000440FBA0745080318450FBB07BB0CBA0CF9
:1008E000B90CB80CB70C8A110A12C80B5F2C003473
:1008F0003B084006C5008A110A12C51BB52C8A1197
:100900000A12BB1B9C2C3C084102031C0034031D33
:1009100001343B084002031C0034031D01343A0833
:100920003F02031C0034031D013439083E02031C3E
:100930000034031D0134003441083C02031C003420
:10094000031D013440083B02031C0034031D013425
:100950003F083A02031C0034031D01343E083902EB
:10096000031C0034031D01340034C01F0134003463
:1009700041083C02031D003440083B02031D0034C3
:100980003F083A02031D00343E083902031D0034BB
:1009900001348030C0063B084006C500B801BD01E7
:1009A0003C0841028A110A12031CEE2C4108B600D1
:1009B0003C08C1003608BC004008B6003B08C00037
:1009C0003608BB003F08B6003A08BF003608BA0038
:1009D0003E08B6003908BE003608B90041080319C0
:1009E00000343B08C600BB17C01741083C02C100D9
:1009F0008A110A1203192D2D083041028A110A1298
:100A0000031C1F2DC1003E08BD003F08BE0040086A
:100A1000BF00C001083041028A110A12031C1F2DB9
:100A2000C1003E08BD003F08BE00BF0108304102C2
:100A30008A110A12031C1F2D4608BB00003441080E
:100A40008A110A1203192D2D0310C00CBF0CBE0C05
:100A5000BD0C8A110A12C10B242D8A110A12C51F5E
:100A60003C2DBD09BE09BF09C009BD0A0319BE0A54
:100A70000319BF0A0319C00A3D08B8073E08031846
:100A80003E0FB9073F0803183F0FBA074008031885
:100A9000400FBB078A110A12C51B5D2D8A110A126D
:100AA000031C5F2ABB0CBA0CB90CB80C8A110A12D1
:100AB000BC0F5F2A8A110A123F2A8A110A120318F0
:100AC000F529B809B909BA09BB09B80A0319B90A5D
:100AD0000319BA0A0319BB0A8030C6068A110A1222
:100AE000B1293C08031D41088A110A120319592A29
:100AF0003B084006C6004108BC077E308A110A1236
:100B0000031C8A2DBC028A110A1203183F2A8A117B
:100B10000A128F2DBC028A110A12031C342A3B08C8
:100B2000B8003A08B7003908B600B817C017031064
:100B3000BB01BA01B9011830C5008A110A12361C6E
:100B4000AB2D3E08B9073F0803183F0FBA0740080E
:100B50000318400FBB07BB0CBA0CB90CB80CB70C90
:100B6000B60C03108A110A12C50B9D2D8A110A12A8
:100B7000BB1BBF2DB80DB90DBA0DBB0DBC038A113F
:100B80000A12471B391CD92D8A110A12B81FD92DF8
:100B9000B90A0319BA0A0319BB0A8A110A12031DFA
:100BA000D92DBB0CBA0CB90CBC0A8A110A12031954
:100BB0003F2AC61FBB13003441088A110A120319C9
:100BC0007E2E3C088A110A120319592A3B08400656
:100BD000C600BB17C017C5013B08B8003A08B700EC
:100BE0003908B6003E08B6023F08031C3F0FB702A3
:100BF0004008031C400FB802B801B701B6018A11C2
:100C00000A12031C0A2E0310BB0CBA0CB90CB80C48
:100C10000130C5004108BC028A110A12031C1A2EB9
:100C20007E304507BC078A110A1203183F2A8A1131
:100C30000A12212E7E304507BC078A110A12031CB6
:100C4000342A1830C400B60DB70DB80DB90DBA0D61
:100C5000BB0DC50D3E08B9023F08031C3F0FBA0289
:100C60004008031C400FBB02400DC5048A110A1244
:100C7000451C3E2E36148A110A12492E3E08B90729
:100C80003F0803183F0FBA0740080318400ABB0784
:100C900036108A110A12C40B232E8A110A12471B1E
:100CA000361C752E0310B90DBA0DBB0DC50D3E08CF
:100CB000B9023F08031C3F0FBA024008031C400F53
:100CC000BB02400D45040139B6070318B70A0319E2
:100CD000B80A8A110A12031D752EB80CB70CB60C8F
:100CE000BC0A8A110A1203193F2AC61FB813380812
:100CF000BB003708BA003608B9000034C715FF3406
:100D0000BC088A110A12031D882E7F30BC000034F3
:100D10004708D2004717CD01BB138A110A121127C9
:100D2000570C5706C5008A110A1245189D2E8A15C0
:100D30000A1278208A110A12A02E8A150A12D120CE
:100D40008030D718CD06CD1BBB06521F0034471785
:100D50008A110A1266230034BC088A110A12031D84
:100D6000B22E00344708D2004717CD01BB1BCD1768
:100D7000BB138A110A121127570C5706C5008A1196
:100D80000A124518C92E8A150A12D1208A110A1290
:100D9000CC2E8A150A1278208030CD1BBB06521F3C
:100DA000003447178A110A12662300344708D2001C
:100DB00047173C08D3003B08D4003A08D50039084F
:100DC000D600BB13CD018A110A1211274D08D80095
:100DD0008030D41BCD068A110A12BC263C08D300F1
:100DE0003B08D4003A08D5003908D6003808D900A5
:100DF00047174E08BC004F08BB005008BA00510806
:100E0000B9005808CD008A110A1290265308C10073
:100E10005408C0005508BF005608BE005908BD0060
:100E200000343C088B3C8A150A12031C76288A1170
:100E30000A12031D352F3B08003C8A150A12031CB9
:100E400076288A110A12031D352F3A08003C8A15AC
:100E50000A12031C76288A110A12031D352F39083D
:100E6000003C8A150A12031C76283C08C9003B087E
:100E7000CA003A08CB003908CC00BB173B08C000B9
:100E80003A08BF003908BE00A230BB00F930BA00F2
:100E90008330B9006E30B8008A110A128623BC0A6A
:100EA0008A110A12BB1B592FB80DB90DBA0DBB0D13
:100EB000BC03BB1347138A110A127C2247178A11FD
:100EC0000A12391C682FB90A0319BA0A0319BB0A96
:100ED0003B08CF003A08D0003908D1000730B905E7
:100EE0000330390280308A110A12031C7A2FCD0692
:100EF0000430B9023908D7004F08BB005008BA00C7
:100F00005108B9008A110A12A1213C08CE008A15A5
:100F10000A1203195A283B08CF003A08D0003908B2
:100F2000D100BB17C930C000BF018A110A121D24AD
:100F30008A110A12BB1BA12FB80DB90DBA0DBB0D3A
:100F4000BC034908C1004A08C0004B08BF004C0858
:100F5000BE008A110A12CB243C08C9003B08CA0013
:100F60003A08CB003908CC004E08BC004F08BB0043
:100F70005008BA005108B900BB17FD30C000A030BE
:100F8000BF008A110A121D240C308A110A12BB1BE1
:100F9000CE2FB80DB90DBA0DBB0DBC03BC0249086C
:100FA000C1004A08C0004B08BF004C08BE008A11AF
:100FB0000A12CB243C08C9003B08CA003A08CB00FF
:100FC0003908CC004E08BC004F08BB005008BA00DE
:100FD0005108B900BB17A230C0002030BF008A11F1
:100FE0000A121D2418308A110A12BB1BFC2FB80DDF
:100FF000B90DBA0DBB0DBC03BC024908C1004A08BB
:10100000C0004B08BF004C08BE008A110A12CB2456
:101010003C08C9003B08CA003A08CB003908CC009C
:101020004E08BC004F08C0005008BF005108BE0069
:10103000C017B430BB006130BA001A30B900633059
:10104000B8008A110A12862327308A150A12BB1BA0
:101050002F28B70DB80DB90DBA0DBB0DBC03BC02DE
:101060008A110A1266234908C1004A08C0004B08C9
:10107000BF004C08BE008A110A12CB243C08C900EC
:101080003B08CA003A08CB003908CC003C08C10034
:101090003B08C0003A08BF003908BE008A110A1296
:1010A00071253C08CE003B08CF003A08D000390833
:1010B000D10000344908BC004A08BB004B08BA0004
:1010C0004C08B9003C08C1003B08C0003A08BF000A
:1010D0003908BE008A110A1271253C08CE003B086F
:1010E000CF003A08D0003908D1000034C716FF34C9
:1010F00047176F30C1004C30C000F530BF00CE3014
:10110000BE008A110A1271257530C100B630C000C8
:101110000630BF001A30BE008A110A12CB244E08D6
:10112000C1004F08C0005008BF005108BE008A111E
:101130000A1271257A30C1002A30C000AA30BF00DF
:10114000A530BE008A110A12CB244E08C1004F08F8
:10115000C0005008BF005108BE008A110A12712554
:101160004E08C1004F08C0005008BF005108BE0023
:101170008A110A1271254E08C1004F08C00050089C
:10118000BF005108BE00C1038A110A12C9247F3072
:10119000C100C001BF01BE0147138A110A12CB244E
:1011A000003447176C30C1003630C0006830BF00D3
:1011B000F930BE008A110A1271257230C100D03098
:1011C000C0000730BF00C030BE008A110A12CB2415
:1011D0004E08C1004F08C0005008BF005108BE00B3
:1011E0008A110A1271257830C1000830C000883099
:1011F000BF008430BE008A110A12CB244E08C10001
:101200004F08C0005008BF005108BE008A110A12E2
:1012100071257C30C100AA30C000AA30BF00AB30BD
:10122000BE008A110A12CB244E08C1004F08C0002C
:101230005008BF005108BE008A110A1271254908E2
:10124000C1004A08C0004B08BF004C08BE008A110C
:101250000A1271254908C1004A08C0004B08BF00A6
:101260004C08BE0047138A110A12CB240034C70170
:10127000831685018312FF308500073083168600B0
:10128000831286017130E8007730E2006D30E900AA
:101290000630EA005430EB003330EC007330ED00E0
:1012A0003830F8007930EE003930F9007830EF004E
:1012B0000230DD006430DC006430E000E830A00083
:1012C0000330A100A201A3016008A400A501A601AA
:1012D000A7018A110A1251212C088316A400831237
:1012E0002D088316A50083122E088316A6008312EC
:1012F0002F088316A7008312D830BE000F30BF001E
:101300004930C0008030C100B901BA01BB01803052
:10131000BC008A110A12712539088316A8008312AD
:101320003A088316A90083123B088316AA00831289
:101330003C088316AB008312E1010B168B178A154C
:101340000A1231225D08003C8A150A12031DAE29DB
:101350008A150A12A3248A150A12C3295D08013CC2
:101360008A150A12031DBA298A150A121D268A1522
:101370000A12C3295D08023C8A150A12031DC329FB
:101380008A150A1261268A150A129F298A150A12DD
:10139000C8298A150A12061C222A6108003C8A15EF
:1013A0000A12031DE7298A150A12D4238A150A1284
:1013B000061DDD295C08013EDC008A150A12861C28
:1013C000E42901305C02DC008A150A121F2A610838
:1013D000013C8A150A12031D012A8A150A120523E7
:1013E0008A150A12061DF7296008013EE0008A15D9
:1013F0000A12861CFE2901306002E0008A150A12DA
:101400001F2A6108023C8A150A12031D1F2A8A1529
:101410000A1231228A150A12061D112A5D08013EA0
:10142000DD008A150A12861C182A01305D02DD00D3
:101430005D08023C8A150A1203181F2ADD018A156D
:101440000A12C9296108013EE1006108023C8A15BF
:101450000A1203182C2AE1018A150A1231228B1074
:10146000080086015D08003C8A150A12031D732AD4
:101470008617690885006908A00040302005A8008B
:101480002808A000A10103308A110A12F7202008C1
:10149000A8000608A0002808200486008613061766
:1014A0006A0885008611061386166B0885006B088E
:1014B000A00040302005A8002808A000A1010330AA
:1014C0008A110A12F7202008A8000608A0002808A0
:1014D00020048600861286110616850186110612E2
:1014E0008A150A12042B5D08013C8A150A12031D95
:1014F000B42A86176D0885006D08A00040302005CD
:10150000A8002808A000A10103308A110A12F720C0
:101510002008A8000608A0002808200486008613DA
:1015200006176A0885008611061386167808850056
:10153000861186120616620885006208A0004030F7
:101540002005A8002808A000A10103308A110A1272
:10155000F7202008A8000608A0002808200486001C
:1015600006128A150A12042B5D08023C8A150A121B
:10157000031D042B86176C0885006C08A000403002
:101580002005A8002808A000A10103308A110A1232
:10159000F7202008A8000608A000280820048600DC
:1015A000861306176E0885006E08A00040302005DF
:1015B000A8002808A000A10103308A110A12F72010
:1015C0002008A8000608A0002808200486000613AA
:1015D0008616790885008611861206166F08850022
:1015E0006F08A00040302005A8002808A000A10135
:1015F00003308A110A12F7202008A8000608A0006C
:10160000280820048600061208008617680885004E
:101610006808A00040302005DA005A08A000A101A7
:1016200003308A110A12F7202008DA000608A00009
:101630005A0820048600861386116008A000A101C4
:101640006430A200A3018A110A12D9202008DE000A
:1016500006175E08A000093C8A150A12031C342BE9
:101660008A110A12142085005E08A000093C8A1520
:101670000A12031C3F2B8A110A122120DA005A0891
:10168000A00040302005DA005A08A000A101033074
:101690008A110A12F7202008DA000608A0005A086A
:1016A00020048600061386116008A000A1010A30FC
:1016B000A200A3018A110A12D9202008FB002108E8
:1016C000FC007B08A0007C08A1000A30A200A30156
:1016D0008A110A12D9202408FB002508FC007B0887
:1016E000DE0086165E08A000093C8A150A12031C5B
:1016F0007D2B8A110A122E2085005E08A000093C6D
:101700008A150A12031C882B8A110A123B20DA0060
:101710005A08A00040302005DA005A08A000A101B4
:1017200003308A110A12F7202008DA000608A00008
:101730005A082004860086126008A000A1010A3021
:10174000A200A3018A110A12D9202408DE0006167D
:101750005E08A000093C8A150A12031CB32B8A11EB
:101760000A12482085005E08A000093C8A150A126A
:10177000031CBE2B8A110A125520DA005A08A00059
:1017800040302005DA005A08A000A10103308A1178
:101790000A12F7202008DA000608A0005A082004E0
:1017A0008600061286110800861762088500620806
:1017B000A00040302005DB005B08A000A101033041
:1017C0008A110A12F7202008DB000608A0005B0837
:1017D00020048600861386115C08A000A1016430F5
:1017E000A200A3018A110A12D9202008DF000617DF
:1017F0005F08A000093C8A150A12031C032C8A11F9
:101800000A12622085005F08A000093C8A150A12AE
:10181000031C0E2C8A110A126F20DB005B08A0004B
:1018200040302005DB005B08A000A10103308A11D5
:101830000A12F7202008DB000608A0005B0820043D
:101840008600061386115C08A000A1010A30A200E0
:10185000A3018A110A12D9202008FB002108FC00EC
:101860007B08A0007C08A1000A30A200A3018A1115
:101870000A12D9202408FB002508FC007B08DF00A1
:1018800086165F08A000093C8A150A12031C4C2C1E
:101890008A110A127C2085005F08A000093C8A1585
:1018A0000A12031C572C8A110A128920DB005B08DC
:1018B000A00040302005DB005B08A000A101033040
:1018C0008A110A12F7202008DB000608A0005B0836
:1018D0002004860086125C08A000A1010A30A20044
:1018E000A3018A110A12D9202408DF0006165F0816
:1018F000A000093C8A150A12031C822C8A110A12C4
:10190000962085005F08A000093C8A150A12031C76
:101910008D2C8A110A12A320DB005B08A000403046
:101920002005DB005B08A000A10103308A110A1228
:10193000F7202008DB000608A0005B0820048600D2
:101940000612861108008316A001A101A201A301BD
:1019500083125C08B900BA01BB018A110A12A121E5
:101960003908BE003A08BF003B08C0003C08C1006F
:10197000831628088312B900831629088312BA0037
:1019800083162A088312BB0083162B088312BC001F
:101990008A110A12DC2539088316AC0083123A0832
:1019A0008316AD0083123B088316AE0083123C08F9
:1019B0008316AF00831283162C088312BE00831691
:1019C0002D088312BF0083162E088312C0008316D1
:1019D0002F088312C100831628088312B9008316CA
:1019E00029088312BA0083162A088312BB008316C3
:1019F0002B088312BC008A110A12DC2539088316D1
:101A0000BC0083123A088316BD0083123B0883167C
:101A1000BE0083123C088316BF003C088312B90045
:101A200083163D088312BA0083163E088312BB005A
:101A300083163F088312BC008A110A12DF2238087D
:101A4000F0003908F1003A08F2003B08F300831671
:101A500024088312A000831625088312A100831690
:101A600026088312A200831627088312A300700899
:101A7000A4007108A5007208A6007308A7008A11C7
:101A80000A1251212C08F0002D08F1002E08F20056
:101A90002F08F300831620088312BE008316210846
:101AA0008312BF00831622088312C0008316230806
:101AB0008312C100831628088312B90083162908EF
:101AC0008312BA0083162A088312BB0083162B08E0
:101AD0008312BC008A110A12782401398A150A126D
:101AE000031D1C2E831620088312B90083162108BB
:101AF0008312BA00831622088312BB0083162308C0
:101B00008312BC008A110A1280263908E3003A08C1
:101B1000E4003B08E5003C08E6005C08B900BA01B7
:101B2000BB018A110A12A1213908BE003A08BF0080
:101B30003B08C0003C08C1006308B9006408BA0053
:101B40006508BB006608BC008A110A1271253908B5
:101B5000E3003A08E4003B08E5003C08E600BE016B
:101B6000BF01C0018030C1006308B9006408BA0039
:101B70006508BB006608BC008A110A12DC2539081A
:101B8000E3003A08E4003B08E5003C08E60063088F
:101B90008316B800831264088316B900831265089F
:101BA0008316BA00831266088316BB0083128A1557
:101BB0000A12A3267A08FB00FC017B088700831623
:101BC0002C088312BE0083162D088312BF008316D3
:101BD0002E088312C00083162F088312C1008316BB
:101BE00020088312B900831621088312BA008316D5
:101BF00022088312BB00831623088312BC008A11BB
:101C00000A12CB2439088316A00083123A088316DF
:101C1000A10083123B088316A20083123C0883169E
:101C2000A30083127008A0007108A1008A110A1293
:101C3000B0208A150A124A2D080083162408831240
:101C4000A000831625088312A1008316260883129C
:101C5000A200831627088312A3005C08A400A50134
:101C6000A601A7018A110A1251212C088316B4007B
:101C700083122D088316B50083122E088316B60032
:101C800083122F088316B7008312E70167085C02EE
:101C90008A150A12031C602E67085C0287008316EF
:101CA00034088312A000831635088312A1008A111C
:101CB0000A12B0200130E7078A150A12031C462ECB
:101CC0000800831624088312A000831625088312B7
:101CD000A100831626088312A20083162708831208
:101CE000A3000230A400A501A601A7018A110A12CF
:101CF00051212C088316B00083122D088316B100E1
:101D000083122E088316B20083122F088316B300A5
:101D100083125C088700831630088312A0008316A4
:101D200031088312A1008A110A12B020870183169C
:101D300030088312A000831631088312A1008A1193
:101D40000A12B02008005C08A000A101A201A301B2
:101D50000230A400A501A601A7018A110A1251218F
:101D60002C08F4002D08F5002E08F6002F08F700C7
:101D70007408B8007508B9007608BA007708BB0087
:101D80008A110A12E2213908BE003A08BF003B0856
:101D9000C0003C08C100831638088312B9008316BE
:101DA00039088312BA0083163A088312BB008316DF
:101DB0003B088312BC008A110A12CB24390883160F
:101DC000BC0083123A088316BD0083123B088316B9
:101DD000BE0083123C088316BF003C088312B90082
:101DE00083163D088312BA0083163E088312BB0097
:101DF00083163F088312BC008A110A12DF223808BA
:101E0000F4003908F5003A08F6003B08F7007408BA
:0A1E1000FA0008008A150A120C2FD0
:02400E00713D02
:00000001FF
