:100000008A150A12762800000900A0080319102892
:100010001720A003000000000000000000000528D9
:10002000A108031908001720A103A00305280C301C
:10003000A500A50B1928000000001230A200A20B99
:1000400026282820282000000000080028201F283B
:100050000D30A400A40B2A2800000800A80B2E28AD
:1000600008000130A8020001031C013EA902031C84
:10007000080031281030A600A501A401210DA40D0F
:10008000A50D2208A4022308031C230FA5020318B0
:1000900050282208A40723080318230FA5070310DC
:1000A000A00DA10DA60B3E2808002408A0070318E8
:1000B00064202508A107031867202608A207031853
:1000C0006A202708A3070800A10A031D0800A20A46
:1000D000031D0800A30A08006F2055200800A4098A
:1000E000A509A609A709A40A031D0800A50A031D5E
:1000F0000800A60A031D0800A70A0800A001A10124
:10010000A201A30183132C3084000430AA008928A3
:10011000A52000185520A52080185520A5200019DD
:100120005520A52080195520A520001A5520A5206E
:10013000801A5520A520001B5520A520801B552086
:10014000840AAA03031D882808000310A40DA50D26
:10015000A60DA70D0800AC01AD01AE01AF018313E0
:10016000A71FB32808006F20A71BB7280800AB0102
:10017000271FBD28AB0AA520B8282308B3002208F2
:10018000B2002108B1002008B0005520A31FD128DB
:100190003308A3003208A2003108A1003008A000F3
:1001A000F2282B08073C031CD7282C30E4282B0806
:1001B0000F3C031CDD282D30E4282B08173C031CC2
:1001C000E3282E30E4282F3084002B080739AA00BA
:1001D0000130A9000319F0280310A90DAA0BEC287F
:1001E000290880040314A70CA60CA50CA40CAB03CF
:1001F000AB1FBD28080007140711860003211F301C
:10020000A8002E20080087140000871000000800B6
:100210000710071186000321F230A8000130A90061
:100220003120080083135A308400000803190800A5
:10023000840AFB201529AA0083136230A80000302D
:10024000A9003120630884000930AB0003102E217F
:10025000AA0CAB0B272903142E2108000008640404
:10026000031C640680008417000984138005650858
:10027000A8002E2008008313532103183B2965088A
:10028000A800A80C0310A80C2E200830AB006508AD
:10029000A8002E205321AA0CAB0B47296508A80003
:1002A0002E202A0808006308840064080005FF3E29
:1002B00008009630BC00C6018A11BB1F6829B90925
:1002C000BA09BB09B90A0319BA0A0319BB0AC61746
:1002D000C5013B088A11031D80293A08BB00390873
:1002E000BA00B901C5153B088A11031D80293A08D7
:1002F000BB00BA01C51145163B088A110319002A33
:100300004508BC028A11031D031CDB2903108A1156
:10031000BB1BFD29B90DBA0DBB0D8A11BC0B87297A
:100320008A11DB299E30BC00C6018A11BB1FA4299B
:10033000B809B909BA09BB09B80A0319B90A0319F6
:10034000BA0A0319BB0AC617C5013B088A11031D67
:10035000C8293A08BB003908BA003808B900B80102
:10036000C5153B088A11031DC8293A08BB00390886
:10037000BA00B901C51145163B088A11031DC829E9
:100380003A08BB00BA01C5153B088A110319002AB7
:100390004508BC028A11031D031CDB2903108A11C6
:1003A000BB1B062AB80DB90DBA0DBB0D8A11BC0BCB
:1003B000CF298A11DB294715C71FFF340130BC0044
:1003C000BB01BA01B901C60DBB0CFF34C714C71F6E
:1003D000FF34FF30BC00BB00BA00B900C60DBB0C37
:1003E000FF344714C71FFF34BB01C61FFF30BB00DB
:1003F000BA00B900C60DBB0CFF34C61FBB130034D6
:10040000BB01BA01B901B801BC0100348A11471B14
:10041000391CFD298A11B81FFD29B90A0319BA0A26
:100420000319BB0A8A11031DFD29BB0CBA0CB90CB8
:10043000BC0A8A110319E6298A11FD293C0803190F
:1004400000343B08C600BB179630BC028A11BC1FA3
:10045000F129BC09BC0A08303C028A11031C4E2A4F
:10046000BC00B90D3A08B9003B08BA00BB0108301E
:100470003C028A11031C4E2ABC00B90D3A08B9008F
:10048000BA0108303C028A11031C4E2ABC00B90D87
:10049000B9013C08031D03108A11592A3C088A112E
:1004A0000319592A0310BB0CBA0CB90C8A11BC0BE6
:1004B000522A8A11471B391C682A8A11031C682A90
:1004C000B90A0319BA0A0319BB0A8A11BB1BF1291D
:1004D000C61F0034BB09BA09B909B90A0319BA0A17
:1004E0000319BB0A0034BB01BA01B9010034B801D9
:1004F0003C08031900343B08C600BB179E30BC0201
:100500008A11BC1FE62ABC09BC0A08303C028A11C9
:10051000031CB62ABC00B80D3908B8003A08B90067
:100520003B08BA00BB0108303C028A11031CB62A02
:10053000BC00B80D3908B8003A08B900BA01083053
:100540003C028A11031CB62ABC00B80D3908B80059
:10055000B90108303C028A11031CB62ABC00B80D50
:10056000B8013C08031D03108A11C22A3C088A11F5
:100570000319C22A0310BB0CBA0CB90CB80C8A11AF
:10058000BC0BBA2A8A11471B381CD32A8A11031CB8
:10059000D32AB80A0319B90A0319BA0A0319BB0AFC
:1005A0008A11BB1BF129C61F0034BB09BA09B9095E
:1005B000B809B80A0319B90A0319BA0A0319BB0A18
:1005C0000034BB01BA01B901B80100344714C71F98
:1005D000FF34BB01C61FFF30BB00BA00B900B80032
:1005E000C60DBB0CFF34B81F003403147F30380530
:1005F0000319390C3B08C600BB1703110318B90ACD
:100600000319BA0A0319BB0A8A11031D0E2BBB0C6E
:10061000BA0CB90CBC0A8A110319E629C61FBB1310
:100620000034B701B601B5013B08C5003A08C40063
:100630003908C3003808C2000830C800BE0C8A114F
:1006400003183A2B8A11C80B1E2BC800BF0C8A1145
:1006500003183D2B8A11C80B262BC800C00C8A1129
:100660000318402B8A11C80B2E2BBB01BA01B9010C
:10067000B801003403108A11552B03108A11712B15
:1006800003108A118E2BBE0C8A11031C552B4208B5
:10069000B80743080318430FB90744080318440F69
:1006A000BA0745080318450FBB07BB0CBA0CB90CB9
:1006B000B80CB70C8A11C80B432B0830C800BF0C0C
:1006C0008A11031C712B4208B80743080318430F13
:1006D000B90744080318440FBA0745080318450F23
:1006E000BB07BB0CBA0CB90CB80CB70CB60C8A1112
:1006F000C80B5F2B0830C800C00C8A11031C8E2B5E
:100700004208B80743080318430FB9074408031801
:10071000440FBA0745080318450FBB07BB0CBA0CBA
:10072000B90CB80CB70CB60CB50C8A11C80B7C2BE5
:100730000034B801B7013B08C5003A08C4003908C5
:10074000C3000830C800BF0C8A110318B92B8A11E6
:10075000C80BA32BC800C00C8A110318B62B8A1132
:10076000C80BAB2BBB01BA01B901003403108A11CD
:10077000E12B03108A11CA2BBF0C8A11031CCA2B50
:100780004308B90744080318440FBA07450803187B
:10079000450FBB07BB0CBA0CB90CB80C8A11C80BBF
:1007A000BC2B0830C800C00C8A11031CE12B430885
:1007B000B90744080318440FBA0745080318450F42
:1007C000BB07BB0CBA0CB90CB80CB70C8A11C80B20
:1007D000D32B00343B084006C5008A11C51B252CCD
:1007E0008A11BB1B0C2C3C084102031C0034031D66
:1007F00001343B084002031C0034031D01343A0855
:100800003F02031C0034031D013439083E02031C5F
:100810000034031D0134003441083C02031C003441
:10082000031D013440083B02031C0034031D013446
:100830003F083A02031C0034031D01343E0839020C
:10084000031C0034031D01340034C01F0134003484
:1008500041083C02031D003440083B02031D0034E4
:100860003F083A02031D00343E083902031D0034DC
:1008700001348030C0063B084006C500B801BD0108
:100880003C0841028A11031C5D2C4108B6003C085B
:10089000C1003608BC004008B6003B08C00036085E
:1008A000BB003F08B6003A08BF003608BA003E0851
:1008B000B6003908BE003608B900410803190034F3
:1008C0003B08C600BB17C01741083C02C1008A1193
:1008D0000319962C083041028A11031C8A2CC1008E
:1008E0003E08BD003F08BE004008BF00C001083000
:1008F00041028A11031C8A2CC1003E08BD003F083A
:10090000BE00BF01083041028A11031C8A2C460830
:10091000BB00003441088A110319962C0310C00C47
:10092000BF0CBE0CBD0C8A11C10B8E2C8A11C51FC9
:10093000A42CBD09BE09BF09C009BD0A0319BE0A1E
:100940000319BF0A0319C00A3D08B8073E08031877
:100950003E0FB9073F0803183F0FBA0740080318B6
:10096000400FBB078A11C51BC12C8A11031C062A24
:10097000BB0CBA0CB90CB80C8A11BC0F062A8A1130
:10098000E6298A110318A429B809B909BA09BB09CB
:10099000B80A0319B90A0319BA0A0319BB0A803045
:1009A000C6068A1168293C08031D41088A110319EB
:1009B000002A3B084006C6004108BC077E308A1169
:1009C000031CE82CBC028A110318E6298A11EC2CBE
:1009D000BC028A11031CDB293B08B8003A08B700A7
:1009E0003908B600B817C0170310BB01BA01B90126
:1009F0001830C5008A11361C072D3E08B9073F087C
:100A000003183F0FBA0740080318400FBB07BB0C81
:100A1000BA0CB90CB80CB70CB60C03108A11C50B84
:100A2000FA2C8A11BB1B192DB80DB90DBA0DBB0DCF
:100A3000BC038A11471B391C2F2D8A11B81F2F2D7B
:100A4000B90A0319BA0A0319BB0A8A11031D2F2D0B
:100A5000BB0CBA0CB90CBC0A8A110319E629C61FD3
:100A6000BB13003441088A110319C72D3C088A11B1
:100A70000319002A3B084006C600BB17C017C50172
:100A80003B08B8003A08B7003908B6003E08B6027D
:100A90003F08031C3F0FB7024008031C400FB80279
:100AA000B801B701B6018A11031C5D2D0310BB0C00
:100AB000BA0CB90CB80C0130C5004108BC028A114F
:100AC000031C6A2D7E304507BC078A110318E629EE
:100AD0008A11702D7E304507BC078A11031CDB2963
:100AE0001830C400B60DB70DB80DB90DBA0DBB0D59
:100AF000C50D3E08B9023F08031C3F0FBA0240086B
:100B0000031C400FBB02400DC5048A11451C8B2DF0
:100B100036148A11962D3E08B9073F0803183F0F77
:100B2000BA0740080318400ABB0736108A11C40BE5
:100B3000722D8A11471B361CBE2D0310B90DBA0D3C
:100B4000BB0DC50D3E08B9023F08031C3F0FBA029A
:100B50004008031C400FBB02400D45040139B60795
:100B60000318B70A0319B80A8A11031DBE2DB80C61
:100B7000B70CB60CBC0A8A110319E629C61FB813B4
:100B80003808BB003708BA003608B9000034C7156A
:100B9000FF34BC088A11031DD02D7F30BC00003407
:100BA0004708D2004717CD01BB138A114926570CBD
:100BB0005706C5008A114518E12D8A1193278A111D
:100BC000E32D8A11E4278030D718CD06CD1BBB0654
:100BD000521F003447178A11F3220034BC088A11CF
:100BE000031DF32D00344708D2004717CD01BB1B6E
:100BF000CD17BB138A114926570C5706C5008A1119
:100C00004518062E8A11E4278A11082E8A11932787
:100C10008030CD1BBB06521F003447178A11F322C8
:100C200000344708D20047173C08D3003B08D400E3
:100C30003A08D5003908D600BB13CD018A114926E0
:100C40004D08D8008030D41BCD068A11FC253C0805
:100C5000D3003B08D4003A08D5003908D60038083C
:100C6000D90047174E08BC004F08BB005008BA0017
:100C70005108B9005808CD008A11D7255308C10082
:100C80005408C0005508BF005608BE005908BD00F2
:100C900000343C088B3C8A11031C912F8A11031DE0
:100CA000662E3B08003C8A11031C912F8A11031DFC
:100CB000662E3A08003C8A11031C912F8A11031DED
:100CC000662E3908003C8A11031C912F3C08C9008C
:100CD0003B08CA003A08CB003908CC00BB173B08D8
:100CE000C0003A08BF003908BE00A230BB00F9308E
:100CF000BA008330B9006E30B8008A111123BC0AE3
:100D00008A11BB1B882EB80DB90DBA0DBB0DBC03E3
:100D1000BB1347138A111E2247178A11391C952EBF
:100D2000B90A0319BA0A0319BB0A3B08CF003A08EB
:100D3000D0003908D1000730B905033039028030BE
:100D40008A11031CA62ECD060430B9023908D7003B
:100D50004F08BB005008BA005108B9008A11592148
:100D60003C08CE008A110319762F3B08CF003A08C1
:100D7000D0003908D100BB17C930C000BF018A11AB
:100D800099238A11BB1BC92EB80DB90DBA0DBB0D25
:100D9000BC034908C1004A08C0004B08BF004C080A
:100DA000BE008A113B243C08C9003B08CA003A082F
:100DB000CB003908CC004E08BC004F08BB005008DF
:100DC000BA005108B900BB17FD30C000A030BF0009
:100DD0008A1199230C308A11BB1BF32EB80DB90D63
:100DE000BA0DBB0DBC03BC024908C1004A08C000D3
:100DF0004B08BF004C08BE008A113B243C08C900C8
:100E00003B08CA003A08CB003908CC004E08BC00A9
:100E10004F08BB005008BA005108B900BB17A230F8
:100E2000C0002030BF008A11992318308A11BB1BE3
:100E30001E2FB80DB90DBA0DBB0DBC03BC0249087D
:100E4000C1004A08C0004B08BF004C08BE008A1110
:100E50003B243C08C9003B08CA003A08CB003908CB
:100E6000CC004E08BC004F08C0005008BF0051081D
:100E7000BE00C017B430BB006130BA001A30B900F0
:100E80006330B8008A11112327308A11BB1B4E2F03
:100E9000B70DB80DB90DBA0DBB0DBC03BC028A115C
:100EA000F3224908C1004A08C0004B08BF004C08A3
:100EB000BE008A113B243C08C9003B08CA003A081E
:100EC000CB003908CC003C08C1003B08C0003A0800
:100ED000BF003908BE008A11D3243C08CE003B086D
:100EE000CF003A08D0003908D10000344908BC00CE
:100EF0004A08BB004B08BA004C08B9003C08C100C6
:100F00003B08C0003A08BF003908BE008A11D3244C
:100F10003C08CE003B08CF003A08D0003908D10089
:100F20000034C716FF3447176F30C1004C30C00083
:100F3000F530BF00CE30BE008A11D3247530C10019
:100F4000B630C0000630BF001A30BE008A113B2404
:100F50004E08C1004F08C0005008BF005108BE0035
:100F60008A11D3247A30C1002A30C000AA30BF00D1
:100F7000A530BE008A113B244E08C1004F08C000B6
:100F80005008BF005108BE008A11D3244E08C1008A
:100F90004F08C0005008BF005108BE008A11D3247A
:100FA0004E08C1004F08C0005008BF005108BE00E5
:100FB000C1038A1139247F30C100C001BF01BE01C5
:100FC00047138A113B24003447176C30C100363078
:100FD000C0006830BF00F930BE008A11D3247230DF
:100FE000C100D030C0000730BF00C030BE008A1141
:100FF0003B244E08C1004F08C0005008BF005108F4
:10100000BE008A11D3247830C1000830C000883077
:10101000BF008430BE008A113B244E08C1004F0837
:10102000C0005008BF005108BE008A11D3247C3094
:10103000C100AA30C000AA30BF00AB30BE008A1188
:101040003B244E08C1004F08C0005008BF005108A3
:10105000BE008A11D3244908C1004A08C0004B08C9
:10106000BF004C08BE008A11D3244908C1004A08B9
:10107000C0004B08BF004C08BE0047138A113B2438
:10108000003483135A30840062106008A4006108A1
:10109000A5001030A2002730A3008A156420E83094
:1010A000A2000330A3008A1564206430A200A301CB
:1010B0008A1564200A30A200A3018A15642024083E
:1010C0008A157220800108002408A0002508A100CC
:1010D0008A113A2020088A1503196F2862148A158C
:1010E000621C7528303E8000840A0800C701831600
:1010F0008801831288018316850183128501831676
:101100008901831289010230E700EF010130F0000C
:101110000230F1006430E6006430E800E830A000FE
:101120000330A100A201A3016808A400A501A60143
:10113000A7018A11AB202C088316A40083122D0866
:101140008316A50083122E088316A60083122F088B
:101150008316A7008312D830BE000F30BF0049307D
:10116000C0008030C100B901BA01BB018030BC00B1
:101170008A11D32439088316A80083123A088316EB
:10118000A90083123B088316AA0083123C08831629
:10119000AB0083120830FA001030FB002030FC0056
:1011A0004030FD008030FE00E90187100710071174
:1011B0008316871007100711860183126430A00080
:1011C000A1018A1105203330082133300821333042
:1011D0000821383008210C300821013008218A11FB
:1011E000803008218A114130FB206330FB207430AD
:1011F000FB206930FB207630FB206530FB2020305F
:10120000FB206D30FB206F30FB206430FB203A3038
:10121000FB2067086F028A15031D1B298A11733092
:10122000FB206930FB206E30FB202130FB208A152B
:101230004B238A154129670870028A15031D2F293F
:101240008A117230FB206130FB206D30FB20703042
:10125000FB202130FB208A15B8248A154129670814
:1012600071028A15031D41298A117230FB206530F5
:10127000FB206330FB207430FB202130FB208A15DB
:10128000F8248A11C03008218A116130FB206D30AA
:10129000FB207030FB203A30FB208A156608E00006
:1012A000E10141208A1112218A116630FB2072303F
:1012B000FB206530FB207130FB203A30FB208A1583
:1012C0006808E000E10141208A1112210A30A000E3
:1012D000A1018A1105200708A000F8302005E900C7
:1012E0006908003C8A150318392A0708A000F8305D
:1012F0002005E90069087A028A15031D8429660819
:10130000013EE6008A15BE2969087B028A15031D85
:10131000952901306602E600013066028A1503183D
:1013200093296430E6008A15BE2969087C028A1573
:10133000031D9F2968080A3EE8008A15BE2969082E
:101340007D028A15031DB02901306802E8000130D2
:1013500068028A150318AE290130E8008A15BE29F3
:1013600069087E028A15031DBE296708013EE70051
:101370006708023C8A150318BE29E7018A118030EC
:1013800008218A114130FB206330FB207430FB20A0
:101390006930FB207630FB206530FB202030FB20BD
:1013A0006D30FB206F30FB206430FB203A30FB2097
:1013B00067086F028A15031DE8298A117330FB2024
:1013C0006930FB206E30FB202130FB208A150A2A71
:1013D000670870028A15031DFA298A117230FB20F2
:1013E0006130FB206D30FB207030FB202130FB2072
:1013F0008A150A2A670871028A15031D0A2A8A11AA
:101400007230FB206530FB206330FB207430FB2002
:101410002130FB208A11C03008218A116130FB2065
:101420006D30FB207030FB203A30FB208A156608B7
:10143000E000E10141208A1112218A116630FB206F
:101440007230FB206530FB207130FB203A30FB20EE
:101450008A156808E000E10141208A111221143048
:10146000A000A1018A1105208A11013008218A15E6
:1014700070298A15891D442B1B30E500831605133E
:10148000831205170530E3004030E4008A1149302B
:101490001B216E301B2170301B2175301B217430D5
:1014A0001B2120301B216D301B216F301B2164302C
:1014B0001B2120301B2173301B2169301B21673019
:1014C0001B216E301B2161301B216C301B213A30F7
:1014D0001B210D301B210A301B211B30E500831618
:1014E0000513831205170530E3004030E4008A112C
:1014F00032301B2120301B212D301B2120301B219D
:1015000072301B2165301B2163301B2174301B217D
:1015100061301B216E301B2167301B216C301B2179
:1015200065301B210D301B210A301B211B30E500CB
:1015300083160513831205170530E3004030E400DD
:101540008A1131301B2120301B212D301B212030EE
:101550001B2172301B2161301B216D301B2170302B
:101560001B210D301B210A301B211B30E500831687
:101570000513831205170530E3004030E4008A119B
:1015800030301B2120301B212D301B2120301B210E
:1015900073301B2169301B216E301B210D301B2144
:1015A0000A301B211C30E500831685178312053095
:1015B000E3008030E4008A113B21E7006708023C29
:1015C0008A150318E42AE7011B30E500831605138A
:1015D000831205170530E3004030E4008A114930DA
:1015E0001B216E301B2170301B2175301B21743084
:1015F0001B2120301B2166301B2172301B216530DE
:101600001B2171301B213A301B210D301B210A3068
:101610001B211C30E5008316851783120530E3007B
:101620008030E4008A113B21E8001B30E50083167E
:101630000513831205170530E3004030E4008A11DA
:1016400049301B216E301B2170301B2175301B214E
:1016500074301B2120301B2161301B216D301B2178
:1016600070301B213A301B210D301B210A301B2109
:101670001C30E5008316851783120530E3008030A7
:10168000E4008A113B21E6008A11013008218A1505
:10169000EF288A154A2B8316A001A101A201A301FC
:1016A00083126608B900BA01BB018A1159213908B1
:1016B000BE003A08BF003B08C0003C08C1008316CA
:1016C00028088312B900831629088312BA008316EA
:1016D0002A088312BB0083162B088312BC008A11D0
:1016E000322539088316AC0083123A088316AD0000
:1016F00083123B088316AE0083123C088316AF00AA
:10170000831283162C088312BE0083162D088312C1
:10171000BF0083162E088312C00083162F08831281
:10172000C100831628088312B90083162908831282
:10173000BA0083162A088312BB0083162B08831273
:10174000BC008A11322539088316BC0083123A087E
:101750008316BD0083123B088316BE0083123C082B
:101760008316BF003C088312B90083163D0883121C
:10177000BA0083163E088312BB0083163F0883120B
:10178000BC008A1177223808F2003908F3003A08C1
:10179000F4003B08F500831624088312A00083168A
:1017A00025088312A100831626088312A20083163F
:1017B00027088312A3007208A4007308A500740808
:1017C000A6007508A7008A11AB202C08F2002D088E
:1017D000F3002E08F4002F08F5008316200883126A
:1017E000BE00831621088312BF00831622088312CD
:1017F000C000831623088312C100831628088312B1
:10180000B900831629088312BA0083162A088312A6
:10181000BB0083162B088312BC008A11EA2301390E
:101820008A15031DB72C831620088312B90083166E
:1018300021088312BA00831622088312BB00831684
:1018400023088312BC008A11C9253908EB003A0825
:10185000EC003B08ED003C08EE006608B900BA0158
:10186000BB018A1159213908BE003A08BF003B0864
:10187000C0003C08C1006B08B9006C08BA006D08D4
:10188000BB006E08BC008A11D3243908EB003A086B
:10189000EC003B08ED003C08EE00BE01BF01C001BA
:1018A0008030C1006B08B9006C08BA006D08BB003D
:1018B0006E08BC008A1132253908EB003A08EC00AA
:1018C0003B08ED003C08EE006B088316B80083125D
:1018D0006C088316B90083126D088316BA00831250
:1018E0006E088316BB0083128A1537257F0883167E
:1018F000C000C10140088312880083162C0883129F
:10190000BE0083162D088312BF0083162E08831293
:10191000C00083162F088312C1008316200883128B
:10192000B900831621088312BA0083162208831295
:10193000BB00831623088312BC008A113B2439089C
:101940008316A00083123A088316A10083123B0875
:101950008316A20083123C088316A3008312720828
:10196000A0007308A1008A1105208A15ED2B08003C
:10197000831624088312A000831625088312A10071
:10198000831626088312A200831627088312A30059
:101990006608A400A501A601A7018A11AB202C08A6
:1019A0008316B40083122D088316B50083122E0807
:1019B0008316B60083122F088316B7008312EA013C
:1019C0006A0866028A15031CF72C6A0866028800FA
:1019D000831634088312A000831635088312A100F1
:1019E0008A1105200130EA078A15031CE02C080043
:1019F000831624088312A000831625088312A100F1
:101A0000831626088312A200831627088312A300D8
:101A10000230A400A501A601A7018A11AB202C0861
:101A20008316B00083122D088316B10083122E088E
:101A30008316B20083122F088316B3008312660840
:101A40008800831630088312A000831631088312A1
:101A5000A1008A1105208801831630088312A00096
:101A6000831631088312A1008A1105200800660838
:101A7000A000A101A201A3010230A400A501A601BA
:101A8000A7018A11AB202C08F6002D08F7002E08BC
:101A9000F8002F08F9007608B8007708B900780830
:101AA000BA007908BB008A1192213908BE003A08B1
:101AB000BF003B08C0003C08C100831638088312F1
:101AC000B900831639088312BA0083163A088312C4
:101AD000BB0083163B088312BC008A113B243908E3
:101AE0008316BC0083123A088316BD0083123B089C
:101AF0008316BE0083123C088316BF003C08831285
:101B0000B90083163D088312BA0083163E0883127B
:101B1000BB0083163F088312BC008A117722380865
:101B2000F6003908F7003A08F8003B08F900760893
:081B3000FF0008008A159B2D3F
:04400E00C423FF3E8A
:00000001FF
