:100000008A110A12052800000900C301FF30831677
:1000100085008312881188100811831688118810B2
:100020000811860183126430A000A10196213330AB
:10003000BE223330BE223330BE223830BE220C30D6
:10004000BE220130BE221030DD00E6010430E700A0
:10005000E801E9014830BE221030B1221030B1224F
:100060001030B1221030B1221030B1221030B12244
:100070001030B1221030B1220230BE225030BE22E8
:100080001830B1221830B1221830B1221830B12204
:100090001830B1221830B1221830B1221830B122F4
:1000A0000230BE225830BE221C30B1221C30B12298
:1000B0001C30B1221C30B1221C30B1221C30B122C4
:1000C0001C30B1221C30B1220230BE226030BE2270
:1000D0001E30B1221E30B1221E30B1221E30B1229C
:1000E0001E30B1221E30B1221E30B1221E30B1228C
:1000F0000230BE226830BE221F30B1221F30B12232
:100100001F30B1221F30B1221F30B1221F30B12267
:100110001F30B1221F30B1220230BE2283169F173A
:100120008312A001A12283161E088312E2001E087A
:10013000E300E401E501BC01BD012030BE008130D7
:10014000BF006208B6006308B7006408B80065081D
:10015000B9000223CC243708DE003808DF00390854
:10016000E0003A08E100BC01C030BD007F30BE00B5
:100170008830BF005E08B7005F08B8006008B900AB
:100180006108BA001F253708DE003808DF0039088B
:10019000E0003A08E1005630B1226F30B1226C30F5
:1001A000B1223A30B1222030B1225E08CF005F0880
:1001B000D0006008D1006108D2000C26C822563059
:1001C000B1222030B1225708CF005808D00059087A
:1001D000D1005A08D200A925C8222530B122C0304A
:1001E000BE226208AC006308AD006408AE0065087A
:1001F000AF006430A400A501A601A70124222008B5
:10020000D7002108D8002208D9002308DA005708AF
:10021000A0005808A1005908A2005A08A300FF3006
:10022000A4000330A500A601A70151222C08D70085
:100230002D08D8002E08D9002F08DA006430A0005D
:10024000A1015D08A200A301E0212008DC005708FD
:10025000A0005808A1005908A2005A08A3005C0891
:10026000A400A501A601A70151222C08EA002D082F
:10027000EB002E08EC002F08ED006A08D6000130D4
:10028000DB005B085602031C4B290530B12201300C
:10029000DB07031C41295C08A600A7015608A20041
:1002A000A301CB212408EE002508EF005708A00089
:1002B0005808A1005908A2005A08A3006E08A4001B
:1002C0006F08A500A601A70112222008EA00210854
:1002D000EB002208EC002308ED006A08EE006B0832
:1002E000EF006E08D5005508043C03187A29043045
:1002F000B1228E295508033C031881290330B1220D
:100300008E295508023C031888290230B1228E2913
:100310005508013C03188E290130B1226430A00039
:10032000A10196210130BE228E289529A00803192B
:10033000A129A821A0030000000000000000000087
:100340009629A10803190800A821A103A003962952
:100350000C30A500A50BAA29000000001230A20055
:10036000A20BB729B921B921000000000800B9216A
:10037000B0290D30A400A40BBB2900000800A80B75
:10038000BF2908000130A8020001031C013EA90298
:10039000031C0800C2291030A800A101A001A70C6D
:1003A000A60C031CD9292208A00723080318230F31
:1003B000A107A10CA00CA50CA40CA80BCF29080028
:1003C0001030A600A501A401210DA40DA50D220841
:1003D000A4022308031C230FA5020318F6292208F0
:1003E000A40723080318230FA5070310A00DA10DD0
:1003F000A60BE42908002408A00703180A222508F0
:10040000A10703180D222608A207031810222708A7
:10041000A3070800A10A031D0800A20A031D080083
:10042000A30A08001522FB210800A409A509A609B2
:10043000A709A40A031D0800A50A031D0800A60AAF
:10044000031D0800A70A0800A001A101A201A30141
:1004500083132C3084000430AA002F2A4B2200186A
:10046000FB214B228018FB214B220019FB214B2240
:100470008019FB214B22001AFB214B22801AFB2101
:100480004B22001BFB214B22801BFB21840AAA0369
:10049000031D2E2A08000310A40DA50DA60DA70DFF
:1004A0000800AC01AD01AE01AF018313A71F592AAB
:1004B00008001522A71B5D2A0800AB01271F632A2D
:1004C000AB0A4B225E2A2308B3002208B20021089F
:1004D000B1002008B000FB21A31F772A3308A30036
:1004E0003208A2003108A1003008A000982A2B0889
:1004F000073C031C7D2A2C308A2A2B080F3C031C46
:10050000832A2D308A2A2B08173C031C892A2E3077
:100510008A2A2F3084002B080739AA000130A9004D
:100520000319962A0310A90DAA0B922A2908800400
:100530000314A70CA60CA50CA40CAB03AB1F632AD9
:100540000800A00DA00D3C30A005C13020049F0084
:100550000530A800BF219F149F18AC2A0C131F1050
:100560000800881408118600B9221F30A800BF2196
:100570000800881500008811000008008810081184
:100580008600B922F230A8000130A900C22108007B
:10059000831344308400000803190800840AB12240
:1005A000CB2A9630BA00C201B91FDF2AB709B809B1
:1005B000B909B70A0319B80A0319B90AC217C10160
:1005C0003908031DF42A3808B9003708B800B70104
:1005D000C1153908031DF42A3808B900B801C11142
:1005E000411639080319672B4108BA02031D031C81
:1005F000422B0310B91B642BB70DB80DB90DBA0B04
:10060000FA2A422B9E30BA00C201B91F132BB60939
:10061000B709B809B909B60A0319B70A0319B80A1C
:100620000319B90AC217C1013908031D332B380851
:10063000B9003708B8003608B700B601C115390847
:10064000031D332B3808B9003708B800B701C111B2
:1006500041163908031D332B3808B900B801C115FC
:1006600039080319672B4108BA02031D031C422BEA
:100670000310B91B6D2BB60DB70DB80DB90DBA0B24
:10068000392B422B4315C31FFF340130BA00B90187
:10069000B801B701C20DB90CFF34C314C31FFF3436
:1006A000FF30BA00B900B800B700C20DB90CFF3472
:1006B0004314C31FFF34B901C21FFF30B900B80093
:1006C000B700C20DB90CFF34C21FB9130034B90111
:1006D000B801B701B601BA010034431B371C642BC3
:1006E000B61F642BB70A0319B80A0319B90A031D08
:1006F000642BB90CB80CB70CBA0A03194D2B642B38
:100700003A08031900343908C200B9179630BA0202
:10071000BA1F582BBA09BA0A08303A02031CAB2B8D
:10072000BA00B70D3808B7003908B800B901083069
:100730003A02031CAB2BBA00B70D3808B700B8015A
:1007400008303A02031CAB2BBA00B70DB7013A08C8
:10075000031D0310B42B3A080319B42B0310B90C72
:10076000B80CB70CBA0BAE2B431B371CC02B031CA9
:10077000C02BB70A0319B80A0319B90AB91B582BB9
:10078000C21F0034B909B809B709B70A0319B80A72
:100790000319B90A0034B901B801B7010034B60130
:1007A0003A08031900343908C200B9179E30BA025A
:1007B000BA1F332CBA09BA0A08303A02031C082CB3
:1007C000BA00B60D3708B6003808B7003908B800C7
:1007D000B90108303A02031C082CBA00B60D3708DC
:1007E000B6003808B700B80108303A02031C082CDC
:1007F000BA00B60D3708B600B70108303A02031C3C
:10080000082CBA00B60DB6013A08031D0310122CCD
:100810003A080319122C0310B90CB80CB70CB60C1B
:10082000BA0B0B2C431B361C202C031C202CB60AA5
:100830000319B70A0319B80A0319B90AB91B582BC7
:10084000C21F0034B909B809B709B609B60A0319B5
:10085000B70A0319B80A0319B90A0034B901B80173
:10086000B701B60100344314C31FFF34B901C21FDE
:10087000FF30B900B800B700B600C20DB90CFF34A4
:100880008030BE0639083E06C100B601BB013A08F9
:100890003F02031C632C3F08B4003A08BF00340831
:1008A000BA003E08B4003908BE003408B9003D085B
:1008B000B4003808BD003408B8003C08B40037085C
:1008C000BC003408B7003F08031900343908C200DF
:1008D000B917BE173F083A02BF000319962C08301B
:1008E0003F02031C8C2CBF003C08BB003D08BC0031
:1008F0003E08BD00BE0108303F02031C8C2CBF0027
:100900003C08BB003D08BC00BD0108303F02031C91
:100910008C2C4208B90000343F080319962C0310B0
:10092000BE0CBD0CBC0CBB0CBF0B8F2CC11FA32C71
:10093000BB09BC09BD09BE09BB0A0319BC0A0319DE
:10094000BD0A0319BE0A3B08B6073C0803183C0F52
:10095000B7073D0803183D0FB8073E0803183E0FC0
:10096000B907C11BBC2C031C6D2BB90CB80CB70C00
:10097000B60CBA0F6D2B4D2B0318132BB609B70904
:10098000B809B909B60A0319B70A0319B80A03194D
:10099000B90A8030C206DF2A3A08031D3F0803194E
:1009A000672B39083E06C2003F08BA077E30031C99
:1009B000DD2CBA0203184D2BE02CBA02031C422B8B
:1009C0003908B6003808B5003708B400B617BE17A6
:1009D0000310B901B801B7011830C100341CFA2C5A
:1009E0003C08B7073D0803183D0FB8073E08031839
:1009F0003E0FB907B90CB80CB70CB60CB50CB40C5B
:100A00000310C10BEE2CB91B0A2DB60DB70DB80D96
:100A1000B90DBA03431B371C1C2DB61F1C2DB70A7A
:100A20000319B80A0319B90A031D1C2DB90CB80C17
:100A3000B70CBA0A03194D2BC21FB91300343F0873
:100A40000319A72D3A080319672B39083E06C2007F
:100A5000B917BE17C1013908B6003808B500370804
:100A6000B4003C08B4023D08031C3D0FB5023E082B
:100A7000031C3E0FB602B601B501B401031C472D9D
:100A80000310B90CB80CB70CB60C0130C1003F080C
:100A9000BA02031C512D7E304107BA0703184D2BB3
:100AA000562D7E304107BA07031C422B1830C00078
:100AB000B40DB50DB60DB70DB80DB90DC10D3C088F
:100AC000B7023D08031C3D0FB8023E08031C3E0F51
:100AD000B9023E0DC104411C6F2D34147A2D3C081F
:100AE000B7073D0803183D0FB8073E0803183E0A34
:100AF000B9073410C00B582D431B341C9E2D031016
:100B0000B70DB80DB90DC10D3C08B7023D08031C67
:100B10003D0FB8023E08031C3E0FB9023E0D4104D2
:100B20000139B4070318B50A0319B60A031D9E2D2F
:100B3000B60CB50CB40CBA0A03194D2BC21FB61370
:100B40003608B9003508B8003408B7000034C315BA
:100B5000FF344430D40053104F08A0005008A100C7
:100B60005108A2005208A300A401CA30A5009A307F
:100B7000A6003B30A700FB25A401E130A500F5301D
:100B8000A6000530A700FB258030A4009630A50004
:100B90009830A600A701FB254030A4004230A500F4
:100BA0000F30A600A701FB25A030A4008630A500C9
:100BB0000130A600A701FB251030A4002730A500B6
:100BC000A601A701FB25E830A4000330A500A6017B
:100BD000A701FB256430A400A501A601A701FB2500
:100BE0000A30A400A501A601A701FB252008AC003E
:100BF00002268001080051222C080319002E5314EC
:100C0000531C0B2E8313540884002C08303E8000A4
:100C1000840A0408D40008004430D4005310D11FC3
:100C2000152ED113FD30AC00AD264F08B70050088B
:100C3000B8005108B9005208BA00CF233608A00006
:100C40003708A1003808A2003908A3002008B60020
:100C50002108B7002208B8002308B900022337088A
:100C6000BC003808BD003908BE003A08BF004F0874
:100C7000B7005008B8005108B9005208BA00402423
:100C80003708CF003808D0003908D1003A08D20020
:100C9000BC01BD017A30BE008830BF004F08B700EC
:100CA0005008B8005108B9005208BA00CC243708DF
:100CB000CF003808D0003908D1003A08D200772692
:100CC000FE30AC00AD2653144F08B7005008B800F2
:100CD0005108B9005208BA00CF233608A0003708DF
:100CE000A1003808A2003908A3009526080040306A
:100CF000A4004230A5000F30A600A701A626A03010
:100D0000A4008630A5000130A600A701A626103059
:100D1000A4002730A500A601A701A626E830A4005C
:100D20000330A500A601A701A6266430A400A501F2
:100D3000A601A701A6260A30A400A501A601A701C5
:100D4000A6262008AC00AD268001080051222C0800
:100D50000319AB2E5314531CB62E8313540884006E
:0E0D60002C08303E8000840A0408D4000800ED
:04400E00C423FF3E8A
:00000001FF
