:100000008A110A12052800000900FF3083168500B6
:10001000081083120810881188100811831688119F
:1000200088100811860183126430A000A101852088
:1000300033307D2133307D2133307D2138307D21B7
:100040000D307D2101307D2183169F178312A00181
:10005000602183161E088312C5001E08C600C70152
:10006000C80183169F1701308312A00060218316F8
:100070001E088312C9001E08CA00CB01CC014C30F7
:1000800070216F3070216E307021673070214830E0
:1000900070213A3070214908BF004A08C0004B085F
:1000A000C1004C08C200902187216D30702173304F
:1000B0007021C0307D214C3070216F3070216E3046
:1000C0007021673070214C3070213A307021450822
:1000D000BF004608C0004708C1004808C200902180
:1000E00087216D3070217330702108144908A000F9
:1000F0004A08A100852008104508A0004608A10074
:10010000852001307D2124288428A0080319902807
:100110009720A003000000000000000000008528D8
:10012000A108031908009720A103A00385280C301B
:10013000A500A50B9928000000001230A200A20B18
:10014000A628A820A820000000000800A8209F28BA
:100150000D30A400A40BAA2800000800A80BAE28AC
:1001600008000130A8020001031C013EA902031C83
:100170000800B1282408A0070318C9202508A107F2
:100180000318CC202608A2070318CF202708A307AE
:100190000800A10A031D0800A20A031D0800A30A03
:1001A0000800D420BA200800A409A509A609A709B7
:1001B000A40A031D0800A50A031D0800A60A031DC2
:1001C0000800A70A0800A001A101A201A30183134E
:1001D0002C3084000430AA00EE280A210018BA202E
:1001E0000A218018BA200A210019BA200A21801990
:1001F000BA200A21001ABA200A21801ABA200A213C
:10020000001BBA200A21801BBA20840AAA03031DFE
:10021000ED2808000310A40DA50DA60DA70D0800DC
:10022000AC01AD01AE01AF018313A71F182908006F
:10023000D420A71B1C290800AB01271F2229AB0AC9
:100240000A211D292308B3002208B2002108B100A9
:100250002008B000BA20A31F36293308A3003208B3
:10026000A2003108A1003008A00057292B08073C44
:10027000031C3C292C3049292B080F3C031C422924
:100280002D3049292B08173C031C48292E304929B9
:100290002F3084002B080739AA000130A900031968
:1002A00055290310A90DAA0B51292908800403140C
:1002B000A70CA60CA50CA40CAB03AB1F22290800AD
:1002C000A00DA00D3C30A005C13020049F000530DA
:1002D000A800AE209F149F186B290C131F10080054
:1002E00088140811860078211F30A800AE2008006D
:1002F0008815000088110000080088100811860089
:100300007821F230A8000130A900B1200800831341
:1003100034308400000803190800840A70218A29F7
:100320003430C40043103F08A0004008A100410839
:10033000A2004208A300A401CA30A5009A30A6007A
:100340003B30A700E221A401E130A500F530A60072
:100350000530A700E2218030A4009630A500983037
:10036000A600A701E2214030A4004230A5000F30D2
:10037000A600A701E221A030A4008630A50001302C
:10038000A600A701E2211030A4002730A500A60195
:10039000A701E221E830A4000330A500A601A701CF
:1003A000E2216430A400A501A601A701E2210A30E0
:1003B000A400A501A601A701E2212008AC00E921C3
:1003C0008001080010212C080319E7294314431C5D
:1003D000F2298313440884002C08303E8000840AEC
:0603E0000408C40008003F
:04400E00C423FF3E8A
:00000001FF
