:100000008A110A12052800000900FF3083168500B6
:10001000081083120810881188100811831688119F
:1000200088100811860183126430A000A101892084
:100030003330112133301121333011213830112167
:100040000D3011210130112183169F178312A00159
:10005000F42083161E088312B5001E08B60083160E
:100060009F1701308312A000F42083161E0883120C
:10007000B3001E08B4004C3004216F3004216E30F0
:10008000042167300421483004213A300421330828
:10009000B0003408B10024211B216D3004217330DD
:1000A0000421C03011214C3004216F3004216E3006
:1000B0000421673004214C3004213A3004213508F2
:1000C000B0003608B10024211B216D3004217330AB
:1000D00004213308A0003408A100A201A301D92003
:1000E000031D79286430A000A1018920013011216D
:1000F000242808143308A0003408A100892008101F
:100100003508A0003608A1008920013011212428DB
:100110008828A008031994289B20A0030000000051
:100120000000000000008928A108031908009B2096
:10013000A103A00389280C30A500A50B9D28000071
:1001400000001230A200A20BAA28AC20AC200000B4
:1001500000000800AC20A3280D30A400A40BAE289A
:1001600000000800A80BB22808000130A802000116
:10017000031C013EA902031C0800B5281030A6008C
:10018000A501A401210DA40DA50D2208A402230898
:10019000031C230FA5020318D4282208A407230850
:1001A0000318230FA5070310A00DA10DA60BC2284D
:1001B00008000530E4280230E4280630E428033043
:1001C000E4280430E4280130A80023082102031D9C
:1001D000EB282208200204300318013003190230F2
:1001E0002805031DFF300800A00DA00D3C30A00520
:1001F000C13020049F000530A800B2209F149F1832
:10020000FF280C131F1008008814081186000C2109
:100210001F30A800B22008008815000088110000D7
:1002200008008810081186000C21F230A800013067
:10023000A900B520080083132A30840000080319A0
:100240000800840A04211E2983132A3084003210F6
:100250003008A4003108A5001030A2002730A30008
:100260004221E830A2000330A30042216430A20002
:10027000A30142210A30A200A301422124084D21FA
:10028000800108002408A0002508A100BE20200845
:1002900003194B293214321C5029303E8000840A45
:0202A000080054
:04400E00C423FF3E8A
:00000001FF
