:100000008A110A12BF2D00000900A0080319102848
:100010001720A003000000000000000000000528D9
:10002000A108031908001720A103A00305280C301C
:10003000A500A50B1928000000001230A200A20B99
:1000400026282820282000000000080028201F283B
:100050000D30A400A40B2A2800000800A80B2E28AD
:1000600008000130A8020001031C013EA902031C84
:10007000080031280530452802304528063045283B
:1000800003304528043045280130A8002308210208
:10009000031D4C28220820020430031801300319E4
:1000A00002302805031DFF3008002408A0070318AC
:1000B00064202508A107031867202608A207031853
:1000C0006A202708A3070800A10A031D0800A20A46
:1000D000031D0800A30A08006F2055200800A4098A
:1000E000A509A609A709A40A031D0800A50A031D5E
:1000F0000800A60A031D0800A70A0800A001A10124
:10010000A201A30183132C3084000430AA008928A3
:10011000A52000185520A52080185520A5200019DD
:100120005520A52080195520A520001A5520A5206E
:10013000801A5520A520001B5520A520801B552086
:10014000840AAA03031D882808000310A40DA50D26
:10015000A60DA70D0800AC01AD01AE01AF018313E0
:10016000A71FB32808006F20A71BB7280800AB0102
:10017000271FBD28AB0AA520B8282308B3002208F2
:10018000B2002108B1002008B0005520A31FD128DB
:100190003308A3003208A2003108A1003008A000F3
:1001A000F2282B08073C031CD7282C30E4282B0806
:1001B0000F3C031CDD282D30E4282B08173C031CC2
:1001C000E3282E30E4282F3084002B080739AA00BA
:1001D0000130A9000319F0280310A90DAA0BEC287F
:1001E000290880040314A70CA60CA50CA40CAB03CF
:1001F000AB1FBD28080027082302031D0929260874
:100200002202031D092925082102031D09292408AA
:100210002002080023082702031D182922082602AD
:10022000031D182921082502031D1829200824026E
:100230000800A00DA00DA00D3830A005C13020048D
:100240009F000530A8002E201F151F1925290C130B
:100250001F10080087140711860032211F30A800E4
:100260002E20080087150000871100000800871065
:10027000071186003221F230A8000130A900312098
:100280000800831344308400000803190800840A1E
:100290002A2144299630BA00C201B91F5829B7094A
:1002A000B809B909B70A0319B80A0319B90AC21774
:1002B000C1013908031D6D293808B9003708B80095
:1002C000B701C1153908031D6D293808B900B801F7
:1002D000C111411639080319E0294108BA02031D6A
:1002E000031CBB290310B91BDD29B70DB80DB90DCF
:1002F000BA0B7329BB299E30BA00C201B91F8C29E1
:10030000B609B709B809B909B60A0319B70A031932
:10031000B80A0319B90AC217C1013908031DAC296B
:100320003808B9003708B8003608B700B601C1155B
:100330003908031DAC293808B9003708B800B701DF
:10034000C11141163908031DAC293808B900B8019C
:10035000C11539080319E0294108BA02031D031C1D
:10036000BB290310B91BE629B60DB70DB80DB90DA1
:10037000BA0BB229BB294315C31FFF340130BA00A1
:10038000B901B801B701C20DB90CFF34C314C31FC2
:10039000FF34FF30BA00B900B800B700C20DB90C85
:1003A000FF344314C31FFF34B901C21FFF30B9002B
:1003B000B800B700C20DB90CFF34C21FB913003426
:1003C000B901B801B701B601BA010034431B371CAB
:1003D000DD29B61FDD29B70A0319B80A0319B90ABE
:1003E000031DDD29B90CB80CB70CBA0A0319C629CC
:1003F000DD293A08031900343908C200B9179630CC
:10040000BA02BA1FD129BA09BA0A08303A02031C43
:10041000242ABA00B70D3808B7003908B800B90166
:1004200008303A02031C242ABA00B70D3808B70076
:10043000B80108303A02031C242ABA00B70DB701EC
:100440003A08031D03102D2A3A0803192D2A031018
:10045000B90CB80CB70CBA0B272A431B371C392A26
:10046000031C392AB70A0319B80A0319B90AB91BB8
:10047000D129C21F0034B909B809B709B70A03194D
:10048000B80A0319B90A0034B901B801B701003438
:10049000B6013A08031900343908C200B9179E3072
:1004A000BA02BA1FAC2ABA09BA0A08303A02031CC7
:1004B000812ABA00B60D3708B6003808B7003908E7
:1004C000B800B90108303A02031C812ABA00B60DFF
:1004D0003708B6003808B700B80108303A02031CE4
:1004E000812ABA00B60D3708B600B70108303A02C3
:1004F000031C812ABA00B60DB6013A08031D031089
:100500008B2A3A0803198B2A0310B90CB80CB70CC4
:10051000B60CBA0B842A431B361C992A031C992A51
:10052000B60A0319B70A0319B80A0319B90AB91B9D
:10053000D129C21F0034B909B809B709B609B60AEA
:100540000319B70A0319B80A0319B90A0034B90123
:10055000B801B701B60100344314C31FFF34B90119
:10056000C21FFF30B900B800B700B600C20DB90C09
:10057000FF3439083E06C100C11BF22AB91BD92A33
:100580003A083F02031C0034031D013439083E02BF
:10059000031C0034031D013438083D02031C0034E1
:1005A000031D013437083C02031C0034031D0134D1
:1005B00000343F083A02031C0034031D01343E0896
:1005C0003902031C0034031D01343D083802031CAA
:1005D0000034031D01343C083702031C0034031DA2
:1005E00001340034BE1F013400343F083A02031DB9
:1005F00000343E083902031D00343D083802031D53
:1006000000343C083702031D003401348030BE063C
:1006100039083E06C100B601BB013A083F02031C7F
:10062000292B3F08B4003A08BF003408BA003E083E
:10063000B4003908BE003408B9003D08B4003808D9
:10064000BD003408B8003C08B4003708BC003408CA
:10065000B7003F08031900343908C200B917BE17A4
:100660003F083A02BF0003195C2B08303F02031C0D
:10067000522BBF003C08BB003D08BC003E08BD003B
:10068000BE0108303F02031C522BBF003C08BB00D8
:100690003D08BC00BD0108303F02031C522B42083C
:1006A000B90000343F0803195C2B0310BE0CBD0CCD
:1006B000BC0CBB0CBF0B552BC11F692BBB09BC0964
:1006C000BD09BE09BB0A0319BC0A0319BD0A0319F7
:1006D000BE0A3B08B6073C0803183C0FB7073D08A5
:1006E00003183D0FB8073E0803183E0FB907C11B9A
:1006F000822B031CE629B90CB80CB70CB60CBA0F48
:10070000E629C62903188C29B609B709B809B90919
:10071000B60A0319B70A0319B80A0319B90A8030CF
:10072000C20658293A08031D3F080319E029390871
:100730003E06C2003F08BA077E30031CA32BBA0254
:100740000318C629A62BBA02031CBB293908B60018
:100750003808B5003708B400B617BE170310B90142
:10076000B801B7011830C100341CC02B3C08B707D2
:100770003D0803183D0FB8073E0803183E0FB907A0
:10078000B90CB80CB70CB60CB50CB40C0310C10BFB
:10079000B42BB91BD02BB60DB70DB80DB90DBA03DC
:1007A000431B371CE22BB61FE22BB70A0319B80A0A
:1007B0000319B90A031DE22BB90CB80CB70CBA0A1D
:1007C0000319C629C21FB91300343F0803196D2C41
:1007D0003A080319E02939083E06C200B917BE17C6
:1007E000C1013908B6003808B5003708B4003C0824
:1007F000B4023D08031C3D0FB5023E08031C3E0F2A
:10080000B602B601B501B401031C0D2C0310B90CDE
:10081000B80CB70CB60C0130C1003F08BA02031C7B
:10082000172C7E304107BA070318C6291C2C7E30CE
:100830004107BA07031CBB291830C000B40DB50D21
:10084000B60DB70DB80DB90DC10D3C08B7023D0886
:10085000031C3D0FB8023E08031C3E0FB9023E0DBB
:10086000C104411C352C3414402C3C08B7073D080A
:1008700003183D0FB8073E0803183E0AB9073410A5
:10088000C00B1E2C431B341C642C0310B70DB80D79
:10089000B90DC10D3C08B7023D08031C3D0FB8025D
:1008A0003E08031C3E0FB9023E0D41040139B40756
:1008B0000318B50A0319B60A031D642CB60CB50C4F
:1008C000B40CBA0A0319C629C21FB6133608B900F8
:1008D0003508B8003408B7000034C315FF3444307D
:1008E000D40053104F08A0005008A1005108A200E6
:1008F0005208A300A401CA30A5009A30A6003B30DC
:10090000A7008A110A12D524A401E130A500F53010
:10091000A6000530A7008A110A12D5248030A40051
:100920009630A5009830A600A7018A110A12D52496
:100930004030A4004230A5000F30A600A7018A1164
:100940000A12D524A030A4008630A5000130A600EC
:10095000A7018A110A12D5241030A4002730A5005F
:10096000A601A7018A110A12D524E830A400033099
:10097000A500A601A7018A110A12D5246430A4009B
:10098000A501A601A7018A110A12D5240A30A400E4
:10099000A501A601A7018A110A12D5242008AC00DE
:1009A0008A110A12E224800108008A110A12AB207F
:1009B0002C088A110A120319DE2C53148A110A1208
:1009C000531CEB2C8313540884002C08303E800009
:1009D000840A0408D40008004430D40053108A115B
:1009E0000A12D11FF92CD113FD30AC008A110A1262
:1009F000B5254F08B7005008B8005108B900520893
:100A0000BA008A110A1248223608A0003708A1004D
:100A10003808A2003908A3002008B6002108B70052
:100A20002208B8002308B9008A110A127B2137086E
:100A3000BC003808BD003908BE003A08BF004F08A6
:100A4000B7005008B8005108B9005208BA008A111E
:100A50000A1206233708CF003808D0003908D10021
:100A60003A08D200BC01BD017A30BE008830BF0018
:100A70004F08B7005008B8005108B9005208BA0032
:100A80008A110A1292233708CF003808D00039089B
:100A9000D1003A08D2008A110A126B25FE30AC0050
:100AA0008A110A12B52553144F08B7005008B80030
:100AB0005108B9005208BA008A110A1248223608B1
:100AC000A0003708A1003808A2003908A3008A1145
:100AD0000A12912508004030A4004230A5000F30D2
:100AE000A600A7018A110A12A825A030A40086300A
:100AF000A5000130A600A7018A110A12A82510300E
:100B0000A4002730A500A601A7018A110A12A82572
:100B1000E830A4000330A500A601A7018A110A123B
:100B2000A8256430A400A501A601A7018A110A1214
:100B3000A8250A30A400A501A601A7018A110A125E
:100B4000A8252008AC008A110A12B52580010800EA
:100B50008A110A12AB202C088A110A120319B12D2E
:100B600053148A110A12531CBE2D83135408840097
:100B70002C08303E8000840A0408D4000800C30119
:100B8000FF308316850083128501EE3083168700BF
:100B90008312303087008A150A12F5218A150A124D
:100BA000F72187125510EE01EF01F001F101E2018A
:100BB000E301E401E501E601E701E801E901DE0105
:100BC000DF01E001E101871187100711831687110A
:100BD00087100711860183126430A000A1018A11D9
:100BE0000A12052033303721333037213330372193
:100BF000383037210C3037210130372183169F17C9
:100C00001F138312A0018A110A12192183161E08CC
:100C10008312EA001E08EB0083169F171F13013092
:100C20008312A0008A110A12192183161E0883124A
:100C3000EC001E08ED008A150A12871E8D28BC01E3
:100C4000BD012030BE008130BF006A08B7006B08CC
:100C5000B800B9018A110A124A218A110A12922394
:100C60003708D6003808D7003908D8003A08D90024
:100C7000BC01C030BD007F30BE008830BF005608C8
:100C8000B7005708B8005808B9005908BA008A11C7
:100C90000A12E5233708D6003808D7003908D800EB
:100CA0003A08D900BC01BD012030BE008130BF0030
:100CB0006C08B7006D08B800B9018A110A124A2100
:100CC0008A110A1292233708DA003808DB00390843
:100CD000DC003A08DD00BC01C030BD007F30BE0042
:100CE0008830BF005A08B7005B08B8005C08B9003C
:100CF0005D08BA008A110A12E5233708DA003808BD
:100D0000DB003908DC003A08DD008A110A12803065
:100D100037218A110A1255302A213A302A215608E1
:100D2000CF005708D0005808D1005908D200EC2451
:100D30008A110A12412156302A218A110A12493099
:100D40002A213A302A215A08CF005B08D0005C08DB
:100D5000D1005D08D200EC248A110A1241214130F1
:100D60002A213330BC003330BD003330BE00803028
:100D7000BF005608B7005708B8005808B90059080E
:100D8000BA008A110A12B92201398A110A1203190A
:100D9000092F8A110A125518092F55148A150A129B
:100DA000F9218A150A12F3215A08BC005B08BD001C
:100DB0005C08BE005D08BF005E08B6005F08B700B3
:100DC0006008B8006108B9008A110A127B218A11F3
:100DD0000A1292233708F2003808F3003908F400A9
:100DE0003A08F5007208B7007308B8007408B90033
:100DF0007508BA008A110A1248223608E600370838
:100E0000E7003808E8003908E900DE01DF01E00109
:100E1000E1015608BC005708BD005808BE0059083B
:100E2000BF003330B7003330B8003330B900803002
:100E3000BA008A110A12B92201398A110A12031959
:100E4000242F8A150A12F7215608BC005708BD0046
:100E50005808BE005908BF006630B7006630B800B9
:100E60000630B9008130BA008A110A12B92201395C
:100E70008A110A1203197C2F8A110A12551C7C2F21
:100E800055108A150A12F5218A150A12F7215A08F7
:100E9000BC005B08BD005C08BE005D08BF005E08CA
:100EA000B6005F08B7006008B8006108B9008A1191
:100EB0000A127B218A110A1292233708F20038089D
:100EC000F3003908F4003A08F5007208B700730817
:100ED000B8007408B9007508BA008A110A124822CD
:100EE0003608E2003708E3003808E4003908E50076
:100EF000DE01DF01E001E1015E08A0005F08A10062
:100F00006008A2006108A3006430A400A501A60146
:100F1000A7018A110A1255202008DE002108DF00EF
:100F20002208E0002308E1008A110A12C0303721AC
:100F30006608A0006708A1006808A2006908A3006D
:100F4000A401A501A601A7018A110A12FB208A119A
:100F50000A12031DC42F8A110A1263302A2161303C
:100F60002A2170302A215F302A217A302A213A3012
:100F70002A2120302A214E302A2175302A216E3034
:100F80002A218A110A12E42F8A110A1263302A21B7
:100F900061302A2170302A215F302A217A302A21BB
:100FA0003A302A2120302A216608CF006708D00075
:100FB0006808D1006908D2006F248A110A12412101
:100FC00041302A2168302A218A110A1290303721B3
:100FD0006208A0006308A1006408A2006508A300DD
:100FE000A401A501A601A7018A110A12FB208A15F6
:100FF0000A12031D14288A110A1263302A21613053
:101000002A2170302A215F302A2172302A213A3079
:101010002A2120302A214E302A2175302A216E3093
:101020002A218A150A1234288A110A1263302A21C9
:1010300061302A2170302A215F302A2172302A2122
:101040003A302A2120302A216208CF006308D000DC
:101050006408D1006508D2006F248A110A12412168
:1010600041302A2168302A218A110A12D0303721D2
:101070008A150A12071C4F288A110A127A302A216F
:1010800061302A2172302A215F302A216F302A21D3
:101090006E302A2120302A218A150A1261288A11ED
:1010A0000A127A302A2161302A2172302A215F30D7
:1010B0002A216F302A2166302A2166302A212030E9
:1010C0002A218A150A12071A78288A110A12723000
:1010D0002A2161302A217A302A215F302A216F307B
:1010E0002A216E302A2120302A218A150A128A28C4
:1010F0008A110A1272302A2161302A217A302A217B
:101100005F302A216F302A2166302A2166302A2159
:1011100020302A218A150A12E3298A150A12F5219C
:101120008A150A12F7216A08A0006B08A100A20123
:10113000A3018A110A123E208A150A12031D7B2977
:101140006C08A0006D08A100A201A3018A110A1277
:101150003E208A150A12031D16298A110A128030B0
:1011600037218A110A1252302A2165302A21613032
:101170002A2164302A2179302A2120302A21743012
:101180002A216F302A2120302A2177302A216F30FE
:101190002A2172302A216B302A2121302A218A11FA
:1011A0000A12C03037218A110A1241302A214B30ED
:1011B0002A2142302A2120302A2163302A216F300F
:1011C0002A216D302A2170302A216C302A21653085
:1011D0002A2174302A2165302A2121302A218A11BE
:1011E0000A12903037218A110A124A302A217530AA
:1011F0002A2173302A2174302A2120302A2170308C
:101200002A2172302A2165302A2173302A21733035
:101210002A2120302A2152302A2143302A213530F8
:101220002A2121302A218A150A1278298A110A12C4
:10123000803037218A110A1252302A2165302A2142
:1012400061302A2164302A2179302A2120302A2154
:1012500074302A216F302A2120302A2177302A2128
:101260006F302A2172302A216B302A2121302A2125
:101270008A110A12C03037218A110A1241302A21FC
:101280004B302A2142302A2120302A2163302A2162
:101290006F302A216D302A2170302A216C302A21AA
:1012A00065302A2174302A2165302A2121302A21F3
:1012B0008A110A12903037218A110A1241302A21EC
:1012C0004B302A2142302A2120302A2169302A211C
:1012D00073302A2120302A2164302A2165302A21C6
:1012E00061302A2174302A2168302A2121302A21B4
:1012F0008A150A12E3298A110A12803037218A11CD
:101300000A1252302A2165302A2161302A216430A4
:101310002A2179302A2120302A2174302A216F3065
:101320002A2120302A2177302A216F302A21723059
:101330002A216B302A2121302A218A110A12C03039
:1013400037218A110A124A302A2175302A21733036
:101350002A2174302A2120302A2169302A216E3036
:101360002A2173302A2165302A2172302A217430D3
:101370002A2120302A2141302A214B302A21423093
:101380002A218A110A12903037218A110A126130FB
:101390002A216E302A2164302A2120302A217030FF
:1013A0002A2172302A2165302A2173302A21733094
:1013B0002A2120302A2152302A2143302A21353057
:1013C0002A2121302A216430A000A1018A110A12A9
:1013D00005208A110A12013037218A110A12FE2DC6
:1013E0008A150A12F22907140800071008000712CC
:0C13F0000800071608008A150A12FD29E3
:02400E00713F00
:00000001FF
