:100000008A110A121F28000009008A0120088207AD
:100010003F3406345B344F3466346D347D340734FA
:100020007F346F348A01200882073F3406345B3402
:100030004F3466346D347D3407347F346F34C301FC
:100040008316870186018312FF3083168500831291
:100050008601870183169F178312A001172283163A
:100060001E088312DE001E08DF005E08AC005F0879
:10007000AD00AE01AF016330A400A501A601A70148
:100080009A212008D8002108D9002208DA00230884
:10009000DB005808A0005908A1005A08A2005B081C
:1000A000A300FF30A4000330A500A601A701C721CB
:1000B0002C08D8002D08D9002E08DA002F08DB0004
:1000C000BC01BD014630BE008530BF005E08B700F0
:1000D0005F08B800B90153224E243708E000380801
:1000E000E1003908E2003A08E300BC01C030BD007D
:1000F0007F30BE008830BF006008B7006108B800DC
:100100006208B9006308BA00A1243708E000380883
:10011000E1003908E2003A08E3005808A000590855
:10012000A1005A08A2005B08A3000A30A400A501A0
:10013000A601A701C7212008E4002108E500220844
:10014000E6002308E7006408DC005808A00059080E
:10015000A1005A08A2005B08A3000A30A400A50170
:10016000A601A701C7212C08E4002D08E5002E08F0
:10017000E6002F08E7006408E8006508E900680861
:10018000A0006908A1000A30A200A301562124089A
:10019000E8002508E9006808DD00023087005D08F6
:1001A000A000093C031CD628052086000A30A000C8
:1001B000A1012121043087005C08A000093C031C38
:1001C000E328122086000A30A000A1012121083076
:1001D00087003E3086001B30D7008316071383123A
:1001E00007170730D5004030D600CD302822E03048
:1001F0002822EF302822F0302822FF302822E63053
:100200002822E5302822ED302822E8302822E53067
:1002100028223A3028226008CF006108D000620806
:10022000D1006308D2002B254822203028225630E6
:1002300028220A3028226430A000A10121212A2886
:100240002029A00803192C293321A0030000000055
:100250000000000000002129A10803190800332133
:10026000A103A00321290C30A500A50B352900000E
:1002700000001230A200A20B4229442144210000B8
:100280000000080044213B290D30A400A40B46299E
:1002900000000800A80B4A2908000130A80200014C
:1002A000031C013EA902031C08004D291030A600C2
:1002B000A501A401210DA40DA50D2208A402230867
:1002C000031C230FA50203186C292208A407230886
:1002D0000318230FA5070310A00DA10DA60B5A2983
:1002E00008002408A007031880212508A107031887
:1002F00083212608A207031886212708A3070800E0
:10030000A10A031D0800A20A031D0800A30A080091
:100310008B2171210800A409A509A609A709A40A2F
:10032000031D0800A50A031D0800A60A031D0800F6
:10033000A70A0800A001A101A201A30183132C3088
:1003400084000430AA00A529C12100187121C1210F
:1003500080187121C12100197121C12180197121D9
:10036000C121001A7121C121801A7121C121001BF4
:100370007121C121801B7121840AAA03031DA429B4
:1003800008000310A40DA50DA60DA70D0800AC01D3
:10039000AD01AE01AF018313A71FCF2908008B2148
:1003A000A71BD3290800AB01271FD929AB0AC121FC
:1003B000D4292308B3002208B2002108B100200884
:1003C000B0007121A31FED293308A3003208A20059
:1003D0003108A1003008A0000E2A2B08073C031C9E
:1003E000F3292C30002A2B080F3C031CF9292D304F
:1003F000002A2B08173C031CFF292E30002A2F301F
:1004000084002B080739AA000130A90003190C2A1F
:100410000310A90DAA0B082A290880040314A70CAD
:10042000A60CA50CA40CAB03AB1FD9290800A00D8A
:10043000A00DA00D3830A005C13020049F0005306C
:10044000A8004A211F151F19232A0C131F1008008A
:10045000AA0083136230A8000030A9004D2155087E
:1004600084000930AB0003103B22AA0CAB0B342AEA
:1004700003143B22080000085604031C56068000A3
:1004800084170009841380055708A8004A21080032
:100490004430A700831327088400000803190800CC
:1004A000A70A28224A2A9630BA00C201B91F612A37
:1004B000B709B809B909B70A0319B80A0319B90A7B
:1004C000C217C1013908031D762A3808B900370858
:1004D000B800B701C1153908031D762A3808B900DC
:1004E000B801C111411639080319E92A4108BA02B5
:1004F000031D031CC42A0310B91BE62AB70DB80D4F
:10050000B90DBA0B7C2AC42A9E30BA00C201B91FA9
:10051000952AB609B709B809B909B60A0319B70A7D
:100520000319B80A0319B90AC217C1013908031D12
:10053000B52A3808B9003708B8003608B700B60140
:10054000C1153908031DB52A3808B9003708B800A5
:10055000B701C11141163908031DB52A3808B90081
:10056000B801C11539080319E92A4108BA02031D67
:10057000031CC42A0310B91BEF2AB60DB70DB80D22
:10058000B90DBA0BBB2AC42A4315C31FFF3401306F
:10059000BA00B901B801B701C20DB90CFF34C314D8
:1005A000C31FFF34FF30BA00B900B800B700C20D56
:1005B000B90CFF344314C31FFF34B901C21FFF300D
:1005C000B900B800B700C20DB90CFF34C21FB9138F
:1005D0000034B901B801B701B601BA010034431BB8
:1005E000371CE62AB61FE62AB70A0319B80A031908
:1005F000B90A031DE62AB90CB80CB70CBA0A0319DC
:10060000CF2AE62A3A08031900343908C200B9177C
:100610009630BA02BA1FDA2ABA09BA0A08303A0280
:10062000031C2D2BBA00B70D3808B7003908B800E5
:10063000B90108303A02031C2D2BBA00B70D380857
:10064000B700B80108303A02031C2D2BBA00B70DD1
:10065000B7013A08031D0310362B3A080319362B4D
:100660000310B90CB80CB70CBA0B302B431B371C5A
:10067000422B031C422BB70A0319B80A0319B90A03
:10068000B91BDA2AC21F0034B909B809B709B70A79
:100690000319B80A0319B90A0034B901B801B7013E
:1006A0000034B6013A08031900343908C200B917FA
:1006B0009E30BA02BA1FB52BBA09BA0A08303A02FC
:1006C000031C8A2BBA00B60D3708B6003808B700ED
:1006D0003908B800B90108303A02031C8A2BBA0065
:1006E000B60D3708B6003808B700B80108303A022E
:1006F000031C8A2BBA00B60D3708B600B7010830C4
:100700003A02031C8A2BBA00B60DB6013A08031D43
:100710000310942B3A080319942B0310B90CB80C4E
:10072000B70CB60CBA0B8D2B431B361CA22B031C2B
:10073000A22BB60A0319B70A0319B80A0319B90A92
:10074000B91BDA2AC21F0034B909B809B709B609BA
:10075000B60A0319B70A0319B80A0319B90A00340B
:10076000B901B801B701B60100344314C31FFF3407
:10077000B901C21FFF30B900B800B700B600C20D02
:10078000B90CFF348030BE0639083E06C100B60100
:10079000BB013A083F02031CE52B3F08B4003A08AE
:1007A000BF003408BA003E08B4003908BE0034085F
:1007B000B9003D08B4003808BD003408B8003C0852
:1007C000B4003708BC003408B7003F0803190034F0
:1007D0003908C200B917BE173F083A02BF00031913
:1007E000182C08303F02031C0E2CBF003C08BB0035
:1007F0003D08BC003E08BD00BE0108303F02031C9E
:100800000E2CBF003C08BB003D08BC00BD010830F9
:100810003F02031C0E2C4208B90000343F080319A4
:10082000182C0310BE0CBD0CBC0CBB0CBF0B112C48
:10083000C11F252CBB09BC09BD09BE09BB0A031990
:10084000BC0A0319BD0A0319BE0A3B08B6073C08D7
:1008500003183C0FB7073D0803183D0FB8073E08C3
:1008600003183E0FB907C11B3E2C031CEF2AB90C1D
:10087000B80CB70CB60CBA0FEF2ACF2A0318952A7A
:10088000B609B709B809B909B60A0319B70A0319AD
:10089000B80A0319B90A8030C206612A3A08031D52
:1008A0003F080319E92A39083E06C2003F08BA0783
:1008B0007E30031C5F2CBA020318CF2A622CBA02C6
:1008C000031CC42A3908B6003808B5003708B4003C
:1008D000B617BE170310B901B801B7011830C1002F
:1008E000341C7C2C3C08B7073D0803183D0FB807A3
:1008F0003E0803183E0FB907B90CB80CB70CB60C7C
:10090000B50CB40C0310C10B702CB91B8C2CB60D9C
:10091000B70DB80DB90DBA03431B371C9E2CB61F7B
:100920009E2CB70A0319B80A0319B90A031D9E2C95
:10093000B90CB80CB70CBA0A0319CF2AC21FB913E5
:1009400000343F080319292D3A080319E92A390808
:100950003E06C200B917BE17C1013908B6003808F3
:10096000B5003708B4003C08B4023D08031C3D0F35
:10097000B5023E08031C3E0FB602B601B501B40134
:10098000031CC92C0310B90CB80CB70CB60C013001
:10099000C1003F08BA02031CD32C7E304107BA07BE
:1009A0000318CF2AD82C7E304107BA07031CC42A6B
:1009B0001830C000B40DB50DB60DB70DB80DB90D9A
:1009C000C10D3C08B7023D08031C3D0FB8023E08AC
:1009D000031C3E0FB9023E0DC104411CF12C34141E
:1009E000FC2C3C08B7073D0803183D0FB8073E082C
:1009F00003183E0AB9073410C00BDA2C431B341C11
:100A0000202D0310B70DB80DB90DC10D3C08B7026C
:100A10003D08031C3D0FB8023E08031C3E0FB902FF
:100A20003E0D41040139B4070318B50A0319B60A8B
:100A3000031D202DB60CB50CB40CBA0A0319CF2A2D
:100A4000C21FB6133608B9003508B8003408B7001D
:100A50000034C315FF344430D4005310D11F342D5B
:100A6000D113FD30AC00CC254F08B7005008B800BA
:100A70005108B9005208BA0051233608A0003708BF
:100A8000A1003808A2003908A3002008B6002108F8
:100A9000B7002208B8002308B90084223708BC0038
:100AA0003808BD003908BE003A08BF004F08B7003B
:100AB0005008B8005108B9005208BA00C2233708DC
:100AC000CF003808D0003908D1003A08D200BC0164
:100AD000BD017A30BE008830BF004F08B700500813
:100AE000B8005108B9005208BA004E243708CF00A8
:100AF0003808D0003908D1003A08D2009625FE30D7
:100B0000AC00CC2553144F08B7005008B80051086A
:100B1000B9005208BA0051233608A0003708A100D6
:100B20003808A2003908A300B42508004030A4000A
:100B30004230A5000F30A600A701C525A030A400B3
:100B40008630A5000130A600A701C5251030A400FD
:100B50002730A500A601A701C525E830A400033071
:100B6000A500A601A701C5256430A400A501A60122
:100B7000A701C5250A30A400A501A601A701C52526
:100B80002008AC00CC2580010800C7212C080319DF
:100B9000CA2D5314531CD52D8313540884002C08DC
:0C0BA000303E8000840A0408D4000800E5
:02400E00713D02
:00000001FF
