:100000008A110A12052800000900FF3083168500B6
:10001000831288118810081183168811881008111E
:10002000860183126430A000A1016A21333092223C
:100030003330922233309222383092220D30922285
:10004000013092220C30CD004830922210308522AF
:100050001030852210308522103085221030852204
:1000600010308522103085221030852202309222F5
:10007000503092221830852218308522183085227F
:1000800018308522183085221830852218308522B4
:100090001830852202309222583092221C3085225C
:1000A0001C3085221C3085221C3085221C30852284
:1000B0001C3085221C3085221C3085220230922281
:1000C000603092221E3085221E3085221E3085220D
:1000D0001E3085221E3085221E3085221E3085224C
:1000E0001E30852202309222683092221F308522F3
:1000F0001F3085221F3085221F3085221F30852228
:100100001F3085221F3085221F3085220230922227
:1001100083169F178312A001752283161E0883126F
:10012000CE001E08CF00D001D101563085226F309D
:1001300085226C30852274308522613085226730BB
:100140008522653085223A308522203085224E086E
:10015000BF004F08C0005008C1005108C200A522CE
:100160009C226D30852256308522C03092224E0866
:10017000AC004F08AD005008AE005108AF0064302D
:10018000A400A501A601A701F8212008C7002108A5
:10019000C8002208C9002308CA004708A000480870
:1001A000A1004908A2004A08A3005208A40053086D
:1001B000A5005408A6005508A70025222C08C70052
:1001C0002D08C8002E08C9002F08CA006430A000FE
:1001D000A1014D08A200A301B4212008CC004708CA
:1001E000A0004808A1004908A2004A08A3004C0842
:1001F000A400A501A601A70125222C08D6002D08E0
:10020000D7002E08D8002F08D9005608C6000130A4
:10021000CB004B084602031C132905308522013010
:10022000CB07031C09294C08A600A7014608A20019
:10023000A3019F212408DA002508DB004708A0005D
:100240004808A1004908A2004A08A3005A08A400CF
:100250005B08A500A601A701E6212008D600210819
:10026000D7002208D8002308D9005608DA0057081A
:10027000DB005A08C5004508043C03184229043035
:10028000852256294508033C031849290330852255
:1002900056294508023C0318502902308522562968
:1002A0004508013C03185629013085224708BF0044
:1002B0004808C0004908C1004A08C200A5229C2283
:1002C000253085226430A000A1016A2101309222EC
:1002D00088286929A008031975297C21A00300003A
:1002E00000000000000000006A29A10803190800AE
:1002F0007C21A103A0036A290C30A500A50B7E294F
:10030000000000001230A200A20B8B298D218D214C
:100310000000000008008D2184290D30A400A40BEA
:100320008F2900000800A80B932908000130A802BB
:100330000001031C013EA902031C0800962910308D
:10034000A800A101A001A70CA60C031CAD2922083E
:10035000A00723080318230FA107A10CA00CA50CCC
:10036000A40CA80BA32908001030A600A501A40125
:10037000210DA40DA50D2208A4022308031C230FA0
:10038000A5020318CA292208A40723080318230F6B
:10039000A5070310A00DA10DA60BB829080024087D
:1003A000A0070318DE212508A1070318E12126086C
:1003B000A2070318E4212708A3070800A10A031DC8
:1003C0000800A20A031D0800A30A0800E921CF21A2
:1003D0000800A409A509A609A709A40A031D080085
:1003E000A50A031D0800A60A031D0800A70A0800A5
:1003F000A001A101A201A30183132C3084000430C9
:10040000AA00032A1F220018CF211F228018CF2103
:100410001F220019CF211F228019CF211F22001A6D
:10042000CF211F22801ACF211F22001BCF211F2284
:10043000801BCF21840AAA03031D022A080003108F
:10044000A40DA50DA60DA70D0800AC01AD01AE01D0
:10045000AF018313A71F2D2A0800E921A71B312A0A
:100460000800AB01271F372AAB0A1F22322A2308B4
:10047000B3002208B2002108B1002008B000CF214B
:10048000A31F4B2A3308A3003208A2003108A100A1
:100490003008A0006C2A2B08073C031C512A2C3082
:1004A0005E2A2B080F3C031C572A2D305E2A2B088E
:1004B000173C031C5D2A2E305E2A2F3084002B0847
:1004C0000739AA000130A90003196A2A0310A90DEF
:1004D000AA0B662A290880040314A70CA60CA50CF5
:1004E000A40CAB03AB1F372A0800A00DA00D3C30B5
:1004F000A005C13020049F000530A80093219F145F
:100500009F18802A0C131F100800881408118600F9
:100510008D221F30A8009321080088150000881143
:10052000000008008810081186008D22F230A80013
:100530000130A9009621080083133430840000089C
:1005400003190800840A85229F2A3430C40043100E
:100550003F08A0004008A1004108A2004208A300F3
:10056000A401CA30A5009A30A6003B30A700F722AC
:10057000A401E130A500F530A6000530A700F72260
:100580008030A4009630A5009830A600A701F7227D
:100590004030A4004230A5000F30A600A701F7228A
:1005A000A030A4008630A5000130A600A701F722E4
:1005B0001030A4002730A500A601A701F722E830DB
:1005C000A4000330A500A601A701F7226430A4000F
:1005D000A501A601A701F7220A30A400A501A601E2
:1005E000A701F7222008AC00FE2280010800252286
:1005F0002C080319FC2A4314431C072B83134408BB
:1006000084002C08303E8000840A0408C4000800DE
:04400E00C423FF3E8A
:00000001FF
