:100000008A110A12052800000900C301DD01DE0182
:100010002030DF008130E000E101E2017A30E300CE
:100020008630E400FF308316850083128811881023
:100030000811831688118810081186018312643014
:10004000A000A101FF203330F7213330F7213330F6
:10005000F7213830F7210D30F7210130F7218316D1
:100060009F178312A001DA2183161E088312E9006C
:100070001E08EA00EB01EC016908B6006A08B70047
:100080006B08B8006C08B9003B223708BC00380880
:10009000BD003908BE003A08BF005D08B7005E0821
:1000A000B8005F08B9006008BA0005243708D50019
:1000B0003808D6003908D7003A08D800BC01BD017D
:1000C000BE018930BF005508B7005608B800570870
:1000D000B9005808BA0058243708D5003808D600A7
:1000E0003908D7003A08D8005630EA216F30EA21A3
:1000F0006C30EA217430EA216130EA216730EA216C
:100100006530EA213A30EA215508CF005608D00080
:100110005708D1005808D200E22401225630EA21C3
:10012000C030F7215508BC005608BD005708BE0076
:100130005808BF005D08B7005E08B8005F08B90046
:100140006008BA0079233708E5003808E600390866
:10015000E7003A08E8006108BC006208BD006308D7
:10016000BE006408BF005508B7005608B80057081D
:10017000B9005808BA0005243708D9003808DA0051
:100180003908DB003A08DC006508BC006608BD00E1
:100190006708BE006808BF005908B7005A08B800D1
:1001A0005B08B9005C08BA0058243708D900380841
:1001B000DA003908DB003A08DC005230EA21653009
:1001C000EA217330EA216930EA217330EA213A30BA
:1001D000EA215908CF005A08D0005B08D1005C081A
:1001E000D200E22401224F30EA216D30EA2164304E
:1001F000A000A101FF200130F7212F28FE28A00830
:1002000003190A291121A0030000000000000000CA
:100210000000FF28A108031908001121A103A00371
:10022000FF280C30A500A50B132900000000123098
:10023000A200A20B20292221222100000000080098
:10024000222119290D30A400A40B24290000080044
:10025000A80B282908000130A8020001031C013E58
:10026000A902031C08002B292408A0070318432116
:100270002508A107031846212608A20703184921CB
:100280002708A3070800A10A031D0800A20A031DEE
:100290000800A30A08004E2134210800A409A5097A
:1002A000A609A709A40A031D0800A50A031D080042
:1002B000A60A031D0800A70A0800A001A101A201C7
:1002C000A30183132C3084000430AA006829842100
:1002D000001834218421801834218421001934210C
:1002E0008421801934218421001A34218421801A28
:1002F00034218421001B34218421801B3421840A71
:10030000AA03031D672908000310A40DA50DA60D5F
:10031000A70D0800AC01AD01AE01AF018313A71F0B
:10032000922908004E21A71B96290800AB01271F20
:100330009C29AB0A842197292308B3002208B20024
:100340002108B1002008B0003421A31FB0293308D0
:10035000A3003208A2003108A1003008A000D12972
:100360002B08073C031CB6292C30C3292B080F3C53
:10037000031CBC292D30C3292B08173C031CC229A0
:100380002E30C3292F3084002B080739AA000130F2
:10039000A9000319CF290310A90DAA0BCB292908FD
:1003A00080040314A70CA60CA50CA40CAB03AB1F74
:1003B0009C290800A00DA00D3C30A005C1302004F0
:1003C0009F000530A80028219F149F18E5290C13D1
:1003D0001F100800881408118600F2211F30A800A1
:1003E00028210800881500008811000008008810E6
:1003F00008118600F221F230A8000130A9002B215B
:100400000800831344308400000803190800840A9C
:10041000EA21042A9630BA00C201B91F182AB70986
:10042000B809B909B70A0319B80A0319B90AC217F2
:10043000C1013908031D2D2A3808B9003708B80052
:10044000B701C1153908031D2D2A3808B900B801B4
:10045000C111411639080319A02A4108BA02031D27
:10046000031C7B2A0310B91B9D2AB70DB80DB90DCB
:10047000BA0B332A7B2A9E30BA00C201B91F4C2A1C
:10048000B609B709B809B909B60A0319B70A0319B1
:10049000B80A0319B90AC217C1013908031D6C2A29
:1004A0003808B9003708B8003608B700B601C115DA
:1004B0003908031D6C2A3808B9003708B800B7019D
:1004C000C11141163908031D6C2A3808B900B8015A
:1004D000C11539080319A02A4108BA02031D031CDB
:1004E0007B2A0310B91BA62AB60DB70DB80DB90D9E
:1004F000BA0B722A7B2A4315C31FFF340130BA009E
:10050000B901B801B701C20DB90CFF34C314C31F40
:10051000FF34FF30BA00B900B800B700C20DB90C03
:10052000FF344314C31FFF34B901C21FFF30B900A9
:10053000B800B700C20DB90CFF34C21FB9130034A4
:10054000B901B801B701B601BA010034431B371C29
:100550009D2AB61F9D2AB70A0319B80A0319B90ABA
:10056000031D9D2AB90CB80CB70CBA0A0319862AC8
:100570009D2A3A08031900343908C200B917963089
:10058000BA02BA1F912ABA09BA0A08303A02031C01
:10059000E42ABA00B70D3808B7003908B800B90125
:1005A00008303A02031CE42ABA00B70D3808B70035
:1005B000B80108303A02031CE42ABA00B70DB701AB
:1005C0003A08031D0310ED2A3A080319ED2A031017
:1005D000B90CB80CB70CBA0BE72A431B371CF92A25
:1005E000031CF92AB70A0319B80A0319B90AB91B77
:1005F000912AC21F0034B909B809B709B70A03190B
:10060000B80A0319B90A0034B901B801B7010034B6
:10061000B6013A08031900343908C200B9179E30F0
:10062000BA02BA1F6C2BBA09BA0A08303A02031C84
:10063000412BBA00B60D3708B6003808B7003908A4
:10064000B800B90108303A02031C412BBA00B60DBC
:100650003708B6003808B700B80108303A02031C62
:10066000412BBA00B60D3708B600B70108303A0280
:10067000031C412BBA00B60DB6013A08031D031046
:100680004B2B3A0803194B2B0310B90CB80CB70CC1
:10069000B60CBA0B442B431B361C592B031C592B8D
:1006A000B60A0319B70A0319B80A0319B90AB91B1C
:1006B000912AC21F0034B909B809B709B609B60AA8
:1006C0000319B70A0319B80A0319B90A0034B901A2
:1006D000B801B701B60100344314C31FFF34B90198
:1006E000C21FFF30B900B800B700B600C20DB90C88
:1006F000FF348030BE0639083E06C100B601BB019A
:100700003A083F02031C9C2B3F08B4003A08BF0084
:100710003408BA003E08B4003908BE003408B900F5
:100720003D08B4003808BD003408B8003C08B400E7
:100730003708BC003408B7003F08031900343908F3
:10074000C200B917BE173F083A02BF000319CF2BEA
:1007500008303F02031CC52BBF003C08BB003D080E
:10076000BC003E08BD00BE0108303F02031CC52B83
:10077000BF003C08BB003D08BC00BD0108303F0283
:10078000031CC52B4208B90000343F080319CF2BC6
:100790000310BE0CBD0CBC0CBB0CBF0BC82BC11F87
:1007A000DC2BBB09BC09BD09BE09BB0A0319BC0A85
:1007B0000319BD0A0319BE0A3B08B6073C08031813
:1007C0003C0FB7073D0803183D0FB8073E08031854
:1007D0003E0FB907C11BF52B031CA62AB90CB80C98
:1007E000B70CB60CBA0FA62A862A03184C2AB609EB
:1007F000B709B809B909B60A0319B70A0319B80A3B
:100800000319B90A8030C206182A3A08031D3F08A6
:100810000319A02A39083E06C2003F08BA077E30F5
:10082000031C162CBA020318862A192CBA02031CC0
:100830007B2A3908B6003808B5003708B400B61767
:10084000BE170310B901B801B7011830C100341C3C
:10085000332C3C08B7073D0803183D0FB8073E0886
:1008600003183E0FB907B90CB80CB70CB60CB50C91
:10087000B40C0310C10B272CB91B432CB60DB70DBC
:10088000B80DB90DBA03431B371C552CB61F552C98
:10089000B70A0319B80A0319B90A031D552CB90C74
:1008A000B80CB70CBA0A0319862AC21FB913003450
:1008B0003F080319E02C3A080319A02A39083E061C
:1008C000C200B917BE17C1013908B6003808B50013
:1008D0003708B4003C08B4023D08031C3D0FB502C4
:1008E0003E08031C3E0FB602B601B501B401031C5D
:1008F000802C0310B90CB80CB70CB60C0130C10039
:100900003F08BA02031C8A2C7E304107BA0703183D
:10091000862A8F2C7E304107BA07031C7B2A1830A9
:10092000C000B40DB50DB60DB70DB80DB90DC10DA4
:100930003C08B7023D08031C3D0FB8023E08031CEB
:100940003E0FB9023E0DC104411CA82C3414B32C37
:100950003C08B7073D0803183D0FB8073E080318C9
:100960003E0AB9073410C00B912C431B341CD72C02
:100970000310B70DB80DB90DC10D3C08B7023D0805
:10098000031C3D0FB8023E08031C3E0FB9023E0D8A
:1009900041040139B4070318B50A0319B60A031D47
:1009A000D72CB60CB50CB40CBA0A0319862AC21F90
:1009B000B6133608B9003508B8003408B70000345B
:1009C000C315FF344430D4005310D11FEB2CD11386
:1009D000FD30AC0083254F08B7005008B80051081F
:1009E000B9005208BA0008233608A0003708A10051
:1009F0003808A2003908A3002008B6002108B70073
:100A00002208B8002308B9003B223708BC00380888
:100A1000BD003908BE003A08BF004F08B7005008B3
:100A2000B8005108B9005208BA0079233708CF003E
:100A30003808D0003908D1003A08D200BC01BD0105
:100A40007A30BE008830BF004F08B7005008B800A9
:100A50005108B9005208BA0005243708CF003808F9
:100A6000D0003908D1003A08D2004D25FE30AC0044
:100A7000832553144F08B7005008B8005108B90037
:100A80005208BA0008233608A0003708A100380829
:100A9000A2003908A3006B2508004030A4004230B2
:100AA000A5000F30A600A7017C25A030A400863049
:100AB000A5000130A600A7017C251030A400273036
:100AC000A500A601A7017C25E830A4000330A500FD
:100AD000A601A7017C256430A400A501A601A701F9
:100AE0007C250A30A400A501A601A7017C252008C9
:100AF000AC008325800108008A212C080319812D70
:100B00005314531C8C2D8313540884002C08303E3E
:0A0B10008000840A0408D4000800E5
:04400E00C423FF3E8A
:00000001FF
