:100000008A110A12052800000900C301E101E2017A
:100010007A30E3008630E400FF30831685008312D7
:10002000881188100811831688118810081186011C
:1000300083126430A000A1014121333039223330D2
:10004000392233303922383039220D30392201300B
:10005000392283169F178312A0011C2283161E08C3
:100060008312E9001E08EA00EB01EC016908B60002
:100070006A08B7006B08B8006C08B9007D22370821
:10008000BC003808BD003908BE003A08BF00B701FF
:10009000B8012030B9008130BA0047243708D500B4
:1000A0003808D6003908D7003A08D800BC01BD018D
:1000B000BE018930BF005508B7005608B800570880
:1000C000B9005808BA009A243708D5003808D60075
:1000D0003908D7003A08D80056302C226F302C222D
:1000E0006C302C2274302C2261302C2267302C2270
:1000F00065302C223A302C225508CF005608D0000B
:100100005708D1005808D2002425432220302C2241
:1001100056302C22C03039225508BC005608BD008C
:100120005708BE005808BF00B701B8012030B90019
:100130008130BA00BB233708E5003808E6003908EB
:10014000E7003A08E8006108BC006208BD006308E7
:10015000BE006408BF005508B7005608B80057082D
:10016000B9005808BA0047243708D9003808DA001F
:100170003908DB003A08DC006508BC006608BD00F1
:100180006708BE006808BF005908B7005A08B800E1
:100190005B08B9005C08BA009A243708D90038080F
:1001A000DA003908DB003A08DC0052302C226530D6
:1001B0002C2273302C2269302C2273302C223A30BE
:1001C0002C225908CF005A08D0005B08D1005C08E7
:1001D000D2002425432220302C224F302C226D3097
:1001E0002C2290303922BC01BD015C30BE0086302B
:1001F000BF00B701B8015C30B9008630BA004724AF
:100200003708DD003808DE003908DF003A08E00072
:100210005908BC005A08BD005B08BE005C08BF005E
:100220005D08B7005E08B8005F08B9006008BA0052
:100230009A243708DD003808DE003908DF003A0864
:10024000E00050302C226F302C2277302C22653089
:100250002C2272302C223A302C225D08CF005E080E
:10026000D0005F08D1006008D20024254322573017
:100270002C226430A000A10141210130392229281B
:100280004029A00803194C295321A00300000000B5
:100290000000000000004129A108031908005321B3
:1002A000A103A00341290C30A500A50B552900008E
:1002B00000001230A200A20B622964216421000018
:1002C0000000080064215B290D30A400A40B6629FE
:1002D00000000800A80B6A2908000130A8020001EC
:1002E000031C013EA902031C08006D292408A00775
:1002F000031885212508A107031888212608A207CD
:1003000003188B212708A3070800A10A031D080072
:10031000A20A031D0800A30A080090217621080004
:10032000A409A509A609A709A40A031D0800A50A8E
:10033000031D0800A60A031D0800A70A0800A00163
:10034000A101A201A30183132C3084000430AA0070
:10035000AA29C62100187621C62180187621C62137
:1003600000197621C62180197621C621001A76212E
:10037000C621801A7621C621001B7621C621801B4A
:100380007621840AAA03031DA92908000310A40DDD
:10039000A50DA60DA70D0800AC01AD01AE01AF0182
:1003A0008313A71FD42908009021A71BD829080070
:1003B000AB01271FDE29AB0AC621D9292308B300C8
:1003C0002208B2002108B1002008B0007621A31F46
:1003D000F2293308A3003208A2003108A100300836
:1003E000A000132A2B08073C031CF8292C30052AEF
:1003F0002B080F3C031CFE292D30052A2B08173C27
:10040000031C042A2E30052A2F3084002B080739BC
:10041000AA000130A9000319112A0310A90DAA0B83
:100420000D2A290880040314A70CA60CA50CA40C03
:10043000AB03AB1FDE290800A00DA00D3C30A005CA
:10044000C13020049F000530A8006A219F149F1826
:10045000272A0C131F100800881408118600342264
:100460001F30A8006A2108008815000088110000CC
:1004700008008810081186003422F230A8000130EC
:10048000A9006D210800831344308400000803197B
:100490000800840A2C22462A9630BA00C201B91FED
:1004A0005A2AB709B809B909B70A0319B80A0319CA
:1004B000B90AC217C1013908031D6F2A3808B900EB
:1004C0003708B800B701C1153908031D6F2A38086D
:1004D000B900B801C111411639080319E22A4108CF
:1004E000BA02031D031CBD2A0310B91BDF2AB70D76
:1004F000B80DB90DBA0B752ABD2A9E30BA00C201DB
:10050000B91F8E2AB609B709B809B909B60A03197D
:10051000B70A0319B80A0319B90AC217C101390881
:10052000031DAE2A3808B9003708B8003608B700EE
:10053000B601C1153908031DAE2A3808B9003708BD
:10054000B800B701C11141163908031DAE2A380899
:10055000B900B801C11539080319E22A4108BA02E5
:10056000031D031CBD2A0310B91BE82AB60DB70DE5
:10057000B80DB90DBA0BB42ABD2A4315C31FFF34F9
:100580000130BA00B901B801B701C20DB90CFF348E
:10059000C314C31FFF34FF30BA00B900B800B7005E
:1005A000C20DB90CFF344314C31FFF34B901C21F7D
:1005B000FF30B900B800B700C20DB90CFF34C21F3C
:1005C000B9130034B901B801B701B601BA0100345A
:1005D000431B371CDF2AB61FDF2AB70A0319B80AE4
:1005E0000319B90A031DDF2AB90CB80CB70CBA0AF3
:1005F0000319C82ADF2A3A08031900343908C2004F
:10060000B9179630BA02BA1FD32ABA09BA0A083003
:100610003A02031C262BBA00B70D3808B700390878
:10062000B800B90108303A02031C262BBA00B70DF6
:100630003808B700B80108303A02031C262BBA006C
:10064000B70DB7013A08031D03102F2B3A08031901
:100650002F2B0310B90CB80CB70CBA0B292B431B6A
:10066000371C3B2B031C3B2BB70A0319B80A031991
:10067000B90AB91BD32AC21F0034B909B809B7098E
:10068000B70A0319B80A0319B90A0034B901B80145
:10069000B7010034B6013A08031900343908C20022
:1006A000B9179E30BA02BA1FAE2BBA09BA0A08307F
:1006B0003A02031C832BBA00B60D3708B60038087F
:1006C000B7003908B800B90108303A02031C832B7F
:1006D000BA00B60D3708B6003808B700B8010830C0
:1006E0003A02031C832BBA00B60D3708B600B701D7
:1006F00008303A02031C832BBA00B60DB6013A0843
:10070000031D03108D2B3A0803198D2B0310B90C10
:10071000B80CB70CB60CBA0B862B431B361C9B2BA4
:10072000031C9B2BB60A0319B70A0319B80A03194D
:10073000B90AB91BD32AC21F0034B909B809B709CD
:10074000B609B60A0319B70A0319B80A0319B90A90
:100750000034B901B801B701B60100344314C31F16
:10076000FF34B901C21FFF30B900B800B700B600AE
:10077000C20DB90CFF348030BE0639083E06C100F8
:10078000B601BB013A083F02031CDE2B3F08B40050
:100790003A08BF003408BA003E08B4003908BE0069
:1007A0003408B9003D08B4003808BD003408B8006A
:1007B0003C08B4003708BC003408B7003F080319F0
:1007C00000343908C200B917BE173F083A02BF000B
:1007D0000319112C08303F02031C072CBF003C08F2
:1007E000BB003D08BC003E08BD00BE0108303F0212
:1007F000031C072CBF003C08BB003D08BC00BD012A
:1008000008303F02031C072C4208B90000343F089F
:100810000319112C0310BE0CBD0CBC0CBB0CBF0B80
:100820000A2CC11F1E2CBB09BC09BD09BE09BB0A8D
:100830000319BC0A0319BD0A0319BE0A3B08B6070F
:100840003C0803183C0FB7073D0803183D0FB807D5
:100850003E0803183E0FB907C11B372C031CE82ABA
:10086000B90CB80CB70CB60CBA0FE82AC82A031892
:100870008E2AB609B709B809B909B60A0319B70A21
:100880000319B80A0319B90A8030C2065A2A3A086D
:10089000031D3F080319E22A39083E06C2003F083B
:1008A000BA077E30031C582CBA020318C82A5B2CE6
:1008B000BA02031CBD2A3908B6003808B50037084B
:1008C000B400B617BE170310B901B801B70118304C
:1008D000C100341C752C3C08B7073D0803183D0FB8
:1008E000B8073E0803183E0FB907B90CB80CB70C8F
:1008F000B60CB50CB40C0310C10B692CB91B852CBC
:10090000B60DB70DB80DB90DBA03431B371C972CA4
:10091000B61F972CB70A0319B80A0319B90A031DA1
:10092000972CB90CB80CB70CBA0A0319C82AC21F05
:10093000B91300343F080319222D3A080319E22A9B
:1009400039083E06C200B917BE17C1013908B60002
:100950003808B5003708B4003C08B4023D08031C51
:100960003D0FB5023E08031C3E0FB602B601B501AD
:10097000B401031CC22C0310B90CB80CB70CB60C94
:100980000130C1003F08BA02031CCC2C7E30410765
:10099000BA070318C82AD12C7E304107BA07031CB6
:1009A000BD2A1830C000B40DB50DB60DB70DB80D89
:1009B000B90DC10D3C08B7023D08031C3D0FB8023C
:1009C0003E08031C3E0FB9023E0DC104411CEA2C37
:1009D0003414F52C3C08B7073D0803183D0FB80741
:1009E0003E0803183E0AB9073410C00BD32C431B32
:1009F000341C192D0310B70DB80DB90DC10D3C08ED
:100A0000B7023D08031C3D0FB8023E08031C3E0F11
:100A1000B9023E0D41040139B4070318B50A0319A0
:100A2000B60A031D192DB60CB50CB40CBA0A03197D
:100A3000C82AC21FB6133608B9003508B8003408F2
:100A4000B7000034C315FF344430D4005310D11F15
:100A50002D2DD113FD30AC00C5254F08B70050082F
:100A6000B8005108B9005208BA004A233608A0005D
:100A70003708A1003808A2003908A3002008B600F2
:100A80002108B7002208B8002308B9007D223708E2
:100A9000BC003808BD003908BE003A08BF004F0846
:100AA000B7005008B8005108B9005208BA00BB237B
:100AB0003708CF003808D0003908D1003A08D200F2
:100AC000BC01BD017A30BE008830BF004F08B700BE
:100AD0005008B8005108B9005208BA004724370836
:100AE000CF003808D0003908D1003A08D2008F254D
:100AF000FE30AC00C52553144F08B7005008B800AD
:100B00005108B9005208BA004A233608A000370835
:100B1000A1003808A2003908A300AD250800403024
:100B2000A4004230A5000F30A600A701BE25A030CA
:100B3000A4008630A5000130A600A701BE25103014
:100B4000A4002730A500A601A701BE25E830A40017
:100B50000330A500A601A701BE256430A400A501AD
:100B6000A601A701BE250A30A400A501A601A70180
:100B7000BE252008AC00C52580010800CC212C082A
:100B80000319C32D5314531CCE2D83135408840012
:0E0B90002C08303E8000840A0408D4000800BF
:04400E00C423FF3E8A
:00000001FF
