:100000008A110A12052800000900C301FF30831677
:1000100085008312D901DA012030DB008130DC0059
:10002000881188100811831688118810081186011C
:1000300083126430A000A101C4213330BC223330CC
:10004000BC223330BC223830BC220D30BC220130FF
:10005000BC2283169F178312A0019F2283161E08BD
:100060008312DD001E08DE00DF01E0015D08B6003E
:100070005E08B7005F08B8006008B90000233708C1
:10008000BC003808BD003908BE003A08BF00590856
:10009000B7005A08B8005B08B9005C08BA00172519
:1000A0003708D5003808D6003908D7003A08D800F4
:1000B000BC01BD01BE018930BF005508B70056081C
:1000C000B8005708B9005808BA006A253708D500A3
:1000D0003808D6003908D7003A08D8007630AF2261
:1000E0006F30AF226C30AF227430AF226130AF225C
:1000F0006730AF226530AF223A30AF225508CF00CB
:100100005608D0005708D1005808D200F425C6225E
:100110005630AF22C030BC22CD30BC00CC30BD0048
:100120004C30BE007F30BF005508B7005608B800FD
:100130005708B9005808BA003E2401390319BE28EF
:100140005630AF224430AF222030AF226930AF2288
:100150007330AF222030AF224930AF224E30AF2271
:100160004630AF225230AF224130AF225230AF2260
:100170004530AF224430AF222130AF225508BC00B9
:100180005608BD005708BE005808BF00CD30B70064
:10019000CC30B8004C30B9007F30BA003E24013971
:1001A0000319FA288530BC00EB30BD000130BE00D9
:1001B0008030BF005508B7005608B8005708B9008E
:1001C0005808BA003E2401390319FA285630AF22E4
:1001D0004430AF222030AF226930AF227330AF22DB
:1001E0002030AF225230AF224530AF224430AF2210
:1001F0002130AF225508BC005608BD005708BE008C
:100200005808BF008530B700EB30B8000130B900A6
:100210008030BA003E24013903193C296630BC0005
:100220006630BD000630BE008030BF005508B70004
:100230005608B8005708B9005808BA003E240139DA
:1002400003193C295630AF224430AF222030AF2270
:100250006930AF227330AF222030AF224F30AF224F
:100260005230AF224130AF224E30AF224730AF2262
:100270004530AF222130AF225508BC005608BD00E2
:100280005708BE005808BF006630B7006630B80097
:100290000630B9008030BA003E24013903197E29A6
:1002A000CD30BC00CC30BD000C30BE008030BF0073
:1002B0005508B7005608B8005708B9005808BA00E2
:1002C0003E24013903197E295630AF224430AF2233
:1002D0002030AF226930AF227330AF222030AF22FE
:1002E0005930AF224530AF224C30AF224C30AF22D4
:1002F0004F30AF225730AF222130AF225508BC001B
:100300005608BD005708BE005808BF00CD30B700E2
:10031000CC30B8000C30B9008030BA003E2401392E
:100320000319BC29BC01BD016030BE008030BF0094
:100330005508B7005608B8005708B9005808BA0061
:100340003E2401390319BC295630AF224430AF2274
:100350002030AF226930AF227330AF222030AF227D
:100360004730AF225230AF224530AF224530AF2266
:100370004E30AF222130AF22C830A000A101C421ED
:100380000130BC222928C329A0080319CF29D6216E
:10039000A00300000000000000000000C429A10824
:1003A00003190800D621A103A003C4290C30A5001D
:1003B000A50BD829000000001230A200A20BE529ED
:1003C000E721E721000000000800E721DE290D30C9
:1003D000A400A40BE92900000800A80BED290800DF
:1003E0000130A8020001031C013EA902031C080001
:1003F000F0292408A007031808222508A1070318DC
:100400000B222608A20703180E222708A3070800BC
:10041000A10A031D0800A20A031D0800A30A080080
:100420001322F9210800A409A509A609A709A40A0D
:10043000031D0800A50A031D0800A60A031D0800E5
:10044000A70A0800A001A101A201A30183132C3077
:1004500084000430AA002D2A49220018F9214922DB
:100460008018F92149220019F92149228019F9211E
:100470004922001AF9214922801AF9214922001B38
:10048000F9214922801BF921840AAA03031D2C2A81
:1004900008000310A40DA50DA60DA70D0800AC01C2
:1004A000AD01AE01AF018313A71F572A0800132225
:1004B000A71B5B2A0800AB01271F612AAB0A492250
:1004C0005C2A2308B3002208B2002108B1002008EA
:1004D000B000F921A31F752A3308A3003208A20037
:1004E0003108A1003008A000962A2B08073C031C05
:1004F0007B2A2C30882A2B080F3C031C812A2D30A4
:10050000882A2B08173C031C872A2E30882A2F3074
:1005100084002B080739AA000130A9000319942A86
:100520000310A90DAA0B902A290880040314A70C14
:10053000A60CA50CA40CAB03AB1F612A0800A00DF0
:10054000A00D3C30A005C13020049F000530A8005C
:10055000ED219F149F18AA2A0C131F10080088145D
:1005600008118600B7221F30A800ED210800881569
:100570000000881100000800881008118600B722CA
:10058000F230A8000130A900F021080083134430A4
:100590008400000803190800840AAF22C92A963093
:1005A000BA00C201B91FDD2AB709B809B909B70AEB
:1005B0000319B80A0319B90AC217C1013908031D82
:1005C000F22A3808B9003708B800B701C115390850
:1005D000031DF22A3808B900B801C11141163908C3
:1005E0000319652B4108BA02031D031C402B03109D
:1005F000B91B622BB70DB80DB90DBA0BF82A402BF9
:100600009E30BA00C201B91F112BB609B709B8094B
:10061000B909B60A0319B70A0319B80A0319B90ABE
:10062000C217C1013908031D312B3808B90037083A
:10063000B8003608B700B601C1153908031D312BC3
:100640003808B9003708B800B701C1114116390898
:10065000031D312B3808B900B801C1153908031939
:10066000652B4108BA02031D031C402B0310B91B64
:100670006B2BB60DB70DB80DB90DBA0B372B402B40
:100680004315C31FFF340130BA00B901B801B701E7
:10069000C20DB90CFF34C314C31FFF34FF30BA00BE
:1006A000B900B800B700C20DB90CFF344314C31F22
:1006B000FF34B901C21FFF30B900B800B700C20D46
:1006C000B90CFF34C21FB9130034B901B801B70126
:1006D000B601BA010034431B371C622BB61F622BD4
:1006E000B70A0319B80A0319B90A031D622BB90C1A
:1006F000B80CB70CBA0A03194B2B622B3A08031932
:1007000000343908C200B9179630BA02BA1F562B06
:10071000BA09BA0A08303A02031CA92BBA00B70D6D
:100720003808B7003908B800B90108303A02031C8C
:10073000A92BBA00B70D3808B700B80108303A0243
:10074000031CA92BBA00B70DB7013A08031D03100B
:10075000B22B3A080319B22B0310B90CB80CB70C22
:10076000BA0BAC2B431B371CBE2B031CBE2BB70A8A
:100770000319B80A0319B90AB91B562BC21F003452
:10078000B909B809B709B70A0319B80A0319B90AA8
:100790000034B901B801B7010034B6013A080319B1
:1007A00000343908C200B9179E30BA02BA1F312C82
:1007B000BA09BA0A08303A02031C062CBA00B60D70
:1007C0003708B6003808B7003908B800B901083052
:1007D0003A02031C062CBA00B60D3708B6003808DA
:1007E000B700B80108303A02031C062CBA00B60D57
:1007F0003708B600B70108303A02031C062CBA00CD
:10080000B60DB6013A08031D0310102C3A0803195F
:10081000102C0310B90CB80CB70CB60CBA0B092C81
:10082000431B361C1E2C031C1E2CB60A0319B70AC8
:100830000319B80A0319B90AB91B562BC21F003491
:10084000B909B809B709B609B60A0319B70A0319ED
:10085000B80A0319B90A0034B901B801B701B601E1
:1008600000344314C31FFF34B901C21FFF30B90065
:10087000B800B700B600C20DB90CFF3439083E0607
:10088000C100C11B772CB91B5E2C3A083F02031C28
:100890000034031D013439083E02031C0034031DDB
:1008A000013438083D02031C0034031D01343708AD
:1008B0003C02031C0034031D013400343F083A029B
:1008C000031C0034031D01343E083902031C0034AC
:1008D000031D01343D083802031C0034031D01349C
:1008E0003C083702031C0034031D01340034BE1FD2
:1008F000013400343F083A02031D00343E08390237
:10090000031D00343D083802031D00343C08370243
:10091000031D003401348030BE0639083E06C10094
:10092000B601BB013A083F02031CAE2C3F08B400DD
:100930003A08BF003408BA003E08B4003908BE00C7
:100940003408B9003D08B4003808BD003408B800C8
:100950003C08B4003708BC003408B7003F0803194E
:1009600000343908C200B917BE173F083A02BF0069
:100970000319E12C08303F02031CD72CBF003C08B0
:10098000BB003D08BC003E08BD00BE0108303F0270
:10099000031CD72CBF003C08BB003D08BC00BD01B8
:1009A00008303F02031CD72C4208B90000343F082E
:1009B0000319E12C0310BE0CBD0CBC0CBB0CBF0B0F
:1009C000DA2CC11FEE2CBB09BC09BD09BE09BB0A4C
:1009D0000319BC0A0319BD0A0319BE0A3B08B6076E
:1009E0003C0803183C0FB7073D0803183D0FB80734
:1009F0003E0803183E0FB907C11B072D031C6B2BC4
:100A0000B90CB80CB70CB60CBA0F6B2B4B2B0318E8
:100A1000112BB609B709B809B909B60A0319B70AFB
:100A20000319B80A0319B90A8030C206DD2A3A0848
:100A3000031D3F080319652B39083E06C2003F0815
:100A4000BA077E30031C282DBA0203184B2B2B2D1E
:100A5000BA02031C402B3908B6003808B500370825
:100A6000B400B617BE170310B901B801B7011830AA
:100A7000C100341C452D3C08B7073D0803183D0F45
:100A8000B8073E0803183E0FB907B90CB80CB70CED
:100A9000B60CB50CB40C0310C10B392DB91B552D78
:100AA000B60DB70DB80DB90DBA03431B371C672D32
:100AB000B61F672DB70A0319B80A0319B90A031D2F
:100AC000672DB90CB80CB70CBA0A03194B2BC21F0F
:100AD000B91300343F080319F22D3A080319652BA6
:100AE00039083E06C200B917BE17C1013908B60061
:100AF0003808B5003708B4003C08B4023D08031CB0
:100B00003D0FB5023E08031C3E0FB602B601B5010B
:100B1000B401031C922D0310B90CB80CB70CB60C21
:100B20000130C1003F08BA02031C9C2D7E304107F2
:100B3000BA0703184B2BA12D7E304107BA07031CBF
:100B4000402B1830C000B40DB50DB60DB70DB80D63
:100B5000B90DC10D3C08B7023D08031C3D0FB8029A
:100B60003E08031C3E0FB9023E0DC104411CBA2DC4
:100B70003414C52D3C08B7073D0803183D0FB807CE
:100B80003E0803183E0AB9073410C00BA32D431BBF
:100B9000341CE92D0310B70DB80DB90DC10D3C087B
:100BA000B7023D08031C3D0FB8023E08031C3E0F70
:100BB000B9023E0D41040139B4070318B50A0319FF
:100BC000B60A031DE92DB60CB50CB40CBA0A03190C
:100BD0004B2BC21FB6133608B9003508B8003408CD
:100BE000B7000034C315FF344430D4005310D11F74
:100BF000FD2DD113FD30AC0095264F08B7005008ED
:100C0000B8005108B9005208BA00CD233608A00038
:100C10003708A1003808A2003908A3002008B60050
:100C20002108B7002208B8002308B90000233708BC
:100C3000BC003808BD003908BE003A08BF004F08A4
:100C4000B7005008B8005108B9005208BA008B2408
:100C50003708CF003808D0003908D1003A08D20050
:100C6000BC01BD017A30BE008830BF004F08B7001C
:100C70005008B8005108B9005208BA0017253708C3
:100C8000CF003808D0003908D1003A08D2005F26DA
:100C9000FE30AC00952653144F08B7005008B8003A
:100CA0005108B9005208BA00CD233608A000370811
:100CB000A1003808A2003908A3007D2608004030B2
:100CC000A4004230A5000F30A600A7018E26A03058
:100CD000A4008630A5000130A600A7018E261030A2
:100CE000A4002730A500A601A7018E26E830A400A5
:100CF0000330A500A601A7018E266430A400A5013B
:100D0000A601A7018E260A30A400A501A601A7010D
:100D10008E262008AC009526800108004F222C0862
:100D20000319932E5314531C9E2E831354088400CE
:0E0D30002C08303E8000840A0408D40008001D
:04400E00C423FF3E8A
:00000001FF
