:100000008A110A12052800000900C30115211721D1
:100010005910FF308316850083128501CE30831678
:1000200087008312303087008711871007118316ED
:10003000871187100711860183126430A000A10187
:100040001C2133301522333015223330152238303D
:1000500015220C30152201301522871E092983161E
:100060009F178312A001F72183161E088312DE005A
:100070001E08DF0083169F1701308312A000F721AE
:1000800083161E088312E0001E08E100BC01BD01BA
:100090002030BE008130BF005E08B7005F08B800A6
:1000A000B901282270243708D5003808D60039084D
:1000B000D7003A08D800BC01C030BD007F30BE0078
:1000C0008830BF005508B7005608B8005708B90077
:1000D0005808BA00C3243708D5003808D6003908B4
:1000E000D7003A08D800BC01BD012030BE008130E5
:1000F000BF006008B7006108B800B9012822702469
:100100003708DA003808DB003908DC003A08DD007F
:10011000BC01C030BD007F30BE008830BF005A082F
:10012000B7005B08B8005C08B9005D08BA00C324DA
:100130003708DA003808DB003908DC003A08DD004F
:10014000563008226F3008226C30082274300822A2
:100150006130082267300822653008223A300822D0
:10016000203008225508CF005608D0005708D1008B
:100170005808D2004D251F2256300822C0301522C3
:10018000433008227530082272300822723008226B
:10019000653008226E300822743008223A30082276
:1001A000203008225A08CF005B08D0005C08D1003C
:1001B0005D08D2004D251F22413008223330BC009B
:1001C0003330BD003330BE008030BF005508B7006B
:1001D0005608B8005708B9005808BA0097230139E3
:1001E0000319F32859145508BC005608BD005708D8
:1001F000BE005808BF006630B7006630B800063051
:10020000B9008130BA009723013903190829591020
:100210000B29152117216430A000A1011C210130F8
:1002200015222D28122907140800071408000712A8
:100230000800071608001B29A008031927292E21EA
:10024000A003000000000000000000001C29A1081D
:10025000031908002E21A103A0031C290C30A500BE
:10026000A50B3029000000001230A200A20B3D298E
:100270003F213F210000000008003F2136290D30BA
:10028000A400A40B412900000800A80B4529080080
:100290000130A8020001031C013EA902031C080052
:1002A00048292408A007031860212508A10703187E
:1002B00063212608A207031866212708A307080060
:1002C000A10A031D0800A20A031D0800A30A0800D2
:1002D0006B2151210800A409A509A609A709A40AB0
:1002E000031D0800A50A031D0800A60A031D080037
:1002F000A70A0800A001A101A201A30183132C30C9
:1003000084000430AA008529A12100185121A121CF
:1003100080185121A12100195121A12180195121B9
:10032000A121001A5121A121801A5121A121001BD4
:100330005121A121801B5121840AAA03031D842974
:1003400008000310A40DA50DA60DA70D0800AC0113
:10035000AD01AE01AF018313A71FAF2908006B21C8
:10036000A71BB3290800AB01271FB929AB0AA1219C
:10037000B4292308B3002208B2002108B1002008E4
:10038000B0005121A31FCD293308A3003208A200D9
:100390003108A1003008A000EE292B08073C031CFF
:1003A000D3292C30E0292B080F3C031CD9292D30F0
:1003B000E0292B08173C031CDF292E30E0292F30C1
:1003C00084002B080739AA000130A9000319EC2981
:1003D0000310A90DAA0BE829290880040314A70C0F
:1003E000A60CA50CA40CAB03AB1FB9290800A00DEB
:1003F000A00DA00D3830A005C13020049F000530AD
:10040000A80045211F151F19032A0C131F100800EF
:1004100087140711860010221F30A800452108000C
:10042000871500008711000008008710071186005B
:100430001022F230A8000130A900482108008313DF
:1004400044308400000803190800840A0822222A84
:100450009630BA00C201B91F362AB709B809B909DE
:10046000B70A0319B80A0319B90AC217C101390832
:10047000031D4B2A3808B9003708B800B701C11569
:100480003908031D4B2A3808B900B801C1114116BB
:1004900039080319BE2A4108BA02031D031C992A10
:1004A0000310B91BBB2AB70DB80DB90DBA0B512AF1
:1004B000992A9E30BA00C201B91F6A2AB609B70943
:1004C000B809B909B60A0319B70A0319B80A031912
:1004D000B90AC217C1013908031D8A2A3808B900B0
:1004E0003708B8003608B700B601C1153908031D32
:1004F0008A2A3808B9003708B800B701C111411677
:100500003908031D8A2A3808B900B801C11539080D
:100510000319BE2A4108BA02031D031C992A0310BD
:10052000B91BC42AB60DB70DB80DB90DBA0B902A78
:10053000992A4315C31FFF340130BA00B901B8012D
:10054000B701C20DB90CFF34C314C31FFF34FF3011
:10055000BA00B900B800B700C20DB90CFF3443149B
:10056000C31FFF34B901C21FFF30B900B800B70084
:10057000C20DB90CFF34C21FB9130034B901B80160
:10058000B701B601BA010034431B371CBB2AB61FA2
:10059000BB2AB70A0319B80A0319B90A031DBB2AF3
:1005A000B90CB80CB70CBA0A0319A42ABB2A3A082A
:1005B000031900343908C200B9179630BA02BA1FBD
:1005C000AF2ABA09BA0A08303A02031C022BBA0051
:1005D000B70D3808B7003908B800B90108303A0239
:1005E000031C022BBA00B70D3808B700B801083059
:1005F0003A02031C022BBA00B70DB7013A08031DDB
:1006000003100B2B3A0803190B2B0310B90CB80C71
:10061000B70CBA0B052B431B371C172B031C172BCE
:10062000B70A0319B80A0319B90AB91BAF2AC21FBE
:100630000034B909B809B709B70A0319B80A031988
:10064000B90A0034B901B801B7010034B6013A085B
:10065000031900343908C200B9179E30BA02BA1F14
:100660008A2BBA09BA0A08303A02031C5F2BBA0077
:10067000B60D3708B6003808B7003908B800B90118
:1006800008303A02031C5F2BBA00B60D3708B600DB
:100690003808B700B80108303A02031C5F2BBA00D3
:1006A000B60D3708B600B70108303A02031C5F2BBD
:1006B000BA00B60DB6013A08031D0310692B3A08BB
:1006C0000319692B0310B90CB80CB70CB60CBA0B94
:1006D000622B431B361C772B031C772BB60A03199E
:1006E000B70A0319B80A0319B90AB91BAF2AC21FFE
:1006F0000034B909B809B709B609B60A0319B70A27
:100700000319B80A0319B90A0034B901B801B701CD
:10071000B60100344314C31FFF34B901C21FFF30B8
:10072000B900B800B700B600C20DB90CFF343908E3
:100730003E06C100C11BD02BB91BB72B3A083F02A4
:10074000031C0034031D013439083E02031C00342D
:10075000031D013438083D02031C0034031D01341D
:1007600037083C02031C0034031D013400343F08E9
:100770003A02031C0034031D01343E083902031CF5
:100780000034031D01343D083802031C0034031DEE
:1007900001343C083702031C0034031D01340034CB
:1007A000BE1F013400343F083A02031D00343E08E6
:1007B0003902031D00343D083802031D00343C0893
:1007C0003702031D003401348030BE0639083E066E
:1007D000C100B601BB013A083F02031C072C3F08C9
:1007E000B4003A08BF003408BA003E08B400390823
:1007F000BE003408B9003D08B4003808BD00340814
:10080000B8003C08B4003708BC003408B7003F0803
:10081000031900343908C200B917BE173F083A025D
:10082000BF0003193A2C08303F02031C302CBF00D4
:100830003C08BB003D08BC003E08BD00BE010830BE
:100840003F02031C302CBF003C08BB003D08BC002D
:10085000BD0108303F02031C302C4208B9000034AF
:100860003F0803193A2C0310BE0CBD0CBC0CBB0C8A
:10087000BF0B332CC11F472CBB09BC09BD09BE09E6
:10088000BB0A0319BC0A0319BD0A0319BE0A3B08B7
:10089000B6073C0803183C0FB7073D0803183D0F87
:1008A000B8073E0803183E0FB907C11B602C031C94
:1008B000C42AB90CB80CB70CB60CBA0FC42AA42AB7
:1008C00003186A2AB609B709B809B909B60A03199B
:1008D000B70A0319B80A0319B90A8030C206362AC2
:1008E0003A08031D3F080319BE2A39083E06C20014
:1008F0003F08BA077E30031C812CBA020318A42AD1
:10090000842CBA02031C992A3908B6003808B500AD
:100910003708B400B617BE170310B901B801B70104
:100920001830C100341C9E2C3C08B7073D08031842
:100930003D0FB8073E0803183E0FB907B90CB80CB5
:10094000B70CB60CB50CB40C0310C10B922CB91B30
:10095000AE2CB60DB70DB80DB90DBA03431B371C3D
:10096000C02CB61FC02CB70A0319B80A0319B90A5C
:10097000031DC02CB90CB80CB70CBA0A0319A42A71
:10098000C21FB91300343F0803194B2D3A0803194D
:10099000BE2A39083E06C200B917BE17C101390880
:1009A000B6003808B5003708B4003C08B4023D086A
:1009B000031C3D0FB5023E08031C3E0FB602B601F4
:1009C000B501B401031CEB2C0310B90CB80CB70C27
:1009D000B60C0130C1003F08BA02031CF52C7E3072
:1009E0004107BA070318A42AFA2C7E304107BA0738
:1009F000031C992A1830C000B40DB50DB60DB70D03
:100A0000B80DB90DC10D3C08B7023D08031C3D0FE0
:100A1000B8023E08031C3E0FB9023E0DC104411C42
:100A2000132D34141E2D3C08B7073D0803183D0F45
:100A3000B8073E0803183E0AB9073410C00BFC2C57
:100A4000431B341C422D0310B70DB80DB90DC10D59
:100A50003C08B7023D08031C3D0FB8023E08031CCA
:100A60003E0FB9023E0D41040139B4070318B50A1F
:100A70000319B60A031D422DB60CB50CB40CBA0A04
:100A80000319A42AC21FB6133608B9003508B800E6
:100A90003408B7000034C315FF344430D400531079
:100AA000D11F562DD113FD30AC00EE254F08B700F5
:100AB0005008B8005108B9005208BA002623360879
:100AC000A0003708A1003808A2003908A3002008B8
:100AD000B6002108B7002208B8002308B90059223F
:100AE0003708BC003808BD003908BE003A08BF000E
:100AF0004F08B7005008B8005108B9005208BA00B2
:100B0000E4233708CF003808D0003908D1003A086C
:100B1000D200BC01BD017A30BE008830BF004F0852
:100B2000B7005008B8005108B9005208BA00702444
:100B30003708CF003808D0003908D1003A08D20071
:100B4000B825FE30AC00EE2553144F08B70050080E
:100B5000B8005108B9005208BA0026233608A00090
:100B60003708A1003808A2003908A300D6250800DC
:100B70004030A4004230A5000F30A600A701E725B1
:100B8000A030A4008630A5000130A600A701E7250B
:100B90001030A4002730A500A601A701E725E83002
:100BA000A4000330A500A601A701E7256430A40036
:100BB000A501A601A701E7250A30A400A501A60109
:100BC000A701E7252008AC00EE2580010800A72139
:100BD0002C080319EC2D5314531CF72D83135408C0
:100BE00084002C08303E8000840A0408D4000800E9
:02400E00713D02
:00000001FF
